{
	"FundMe2.sol": {
		"FundMe": {
			"abi": [
				{
					"inputs": [],
					"stateMutability": "nonpayable",
					"type": "constructor"
				},
				{
					"inputs": [
						{
							"internalType": "address",
							"name": "funder",
							"type": "address"
						}
					],
					"name": "addressToAmountFunded",
					"outputs": [
						{
							"internalType": "uint256",
							"name": "amountFunded",
							"type": "uint256"
						}
					],
					"stateMutability": "view",
					"type": "function"
				},
				{
					"inputs": [],
					"name": "fund",
					"outputs": [],
					"stateMutability": "payable",
					"type": "function"
				},
				{
					"inputs": [
						{
							"internalType": "uint256",
							"name": "",
							"type": "uint256"
						}
					],
					"name": "funders",
					"outputs": [
						{
							"internalType": "address",
							"name": "",
							"type": "address"
						}
					],
					"stateMutability": "view",
					"type": "function"
				},
				{
					"inputs": [],
					"name": "minimumusd",
					"outputs": [
						{
							"internalType": "uint256",
							"name": "",
							"type": "uint256"
						}
					],
					"stateMutability": "view",
					"type": "function"
				},
				{
					"inputs": [],
					"name": "owner",
					"outputs": [
						{
							"internalType": "address",
							"name": "",
							"type": "address"
						}
					],
					"stateMutability": "view",
					"type": "function"
				},
				{
					"inputs": [],
					"name": "withdraw",
					"outputs": [],
					"stateMutability": "nonpayable",
					"type": "function"
				}
			],
			"devdoc": {
				"kind": "dev",
				"methods": {},
				"version": 1
			},
			"evm": {
				"assembly": "    /* \"FundMe2.sol\":111:3624  contract FundMe {... */\n  mstore(0x40, 0x80)\n    /* \"FundMe2.sol\":197:201  5e18 */\n  0x4563918244f40000\n    /* \"FundMe2.sol\":171:201  uint256 public minimumusd=5e18 */\n  0x00\n  sstore\n    /* \"FundMe2.sol\":3560:3621  constructor (){... */\n  callvalue\n  dup1\n  iszero\n  tag_1\n  jumpi\n  0x00\n  dup1\n  revert\ntag_1:\n  pop\n    /* \"FundMe2.sol\":3593:3603  msg.sender */\n  caller\n    /* \"FundMe2.sol\":3585:3590  owner */\n  0x03\n  0x00\n    /* \"FundMe2.sol\":3585:3603  owner = msg.sender */\n  0x0100\n  exp\n  dup2\n  sload\n  dup2\n  0xffffffffffffffffffffffffffffffffffffffff\n  mul\n  not\n  and\n  swap1\n  dup4\n  0xffffffffffffffffffffffffffffffffffffffff\n  and\n  mul\n  or\n  swap1\n  sstore\n  pop\n    /* \"FundMe2.sol\":111:3624  contract FundMe {... */\n  dataSize(sub_0)\n  dup1\n  dataOffset(sub_0)\n  0x00\n  codecopy\n  0x00\n  return\nstop\n\nsub_0: assembly {\n        /* \"FundMe2.sol\":111:3624  contract FundMe {... */\n      mstore(0x40, 0x80)\n      jumpi(tag_1, lt(calldatasize, 0x04))\n      shr(0xe0, calldataload(0x00))\n      dup1\n      0x0848e25a\n      eq\n      tag_2\n      jumpi\n      dup1\n      0x3ccfd60b\n      eq\n      tag_3\n      jumpi\n      dup1\n      0x3e47d6f3\n      eq\n      tag_4\n      jumpi\n      dup1\n      0x8da5cb5b\n      eq\n      tag_5\n      jumpi\n      dup1\n      0xb60d4288\n      eq\n      tag_6\n      jumpi\n      dup1\n      0xdc0d3dff\n      eq\n      tag_7\n      jumpi\n    tag_1:\n      0x00\n      dup1\n      revert\n        /* \"FundMe2.sol\":171:201  uint256 public minimumusd=5e18 */\n    tag_2:\n      callvalue\n      dup1\n      iszero\n      tag_8\n      jumpi\n      0x00\n      dup1\n      revert\n    tag_8:\n      pop\n      tag_9\n      tag_10\n      jump\t// in\n    tag_9:\n      mload(0x40)\n      tag_11\n      swap2\n      swap1\n      tag_12\n      jump\t// in\n    tag_11:\n      mload(0x40)\n      dup1\n      swap2\n      sub\n      swap1\n      return\n        /* \"FundMe2.sol\":725:3106  function withdraw() public {... */\n    tag_3:\n      callvalue\n      dup1\n      iszero\n      tag_13\n      jumpi\n      0x00\n      dup1\n      revert\n    tag_13:\n      pop\n      tag_14\n      tag_15\n      jump\t// in\n    tag_14:\n      stop\n        /* \"FundMe2.sol\":237:313  mapping(address funder => uint256 amountFunded) public addressToAmountFunded */\n    tag_4:\n      callvalue\n      dup1\n      iszero\n      tag_16\n      jumpi\n      0x00\n      dup1\n      revert\n    tag_16:\n      pop\n      tag_17\n      0x04\n      dup1\n      calldatasize\n      sub\n      dup2\n      add\n      swap1\n      tag_18\n      swap2\n      swap1\n      tag_19\n      jump\t// in\n    tag_18:\n      tag_20\n      jump\t// in\n    tag_17:\n      mload(0x40)\n      tag_21\n      swap2\n      swap1\n      tag_12\n      jump\t// in\n    tag_21:\n      mload(0x40)\n      dup1\n      swap2\n      sub\n      swap1\n      return\n        /* \"FundMe2.sol\":3435:3455  address public owner */\n    tag_5:\n      callvalue\n      dup1\n      iszero\n      tag_22\n      jumpi\n      0x00\n      dup1\n      revert\n    tag_22:\n      pop\n      tag_23\n      tag_24\n      jump\t// in\n    tag_23:\n      mload(0x40)\n      tag_25\n      swap2\n      swap1\n      tag_26\n      jump\t// in\n    tag_25:\n      mload(0x40)\n      dup1\n      swap2\n      sub\n      swap1\n      return\n        /* \"FundMe2.sol\":320:720  function fund() public payable  {... */\n    tag_6:\n      tag_27\n      tag_28\n      jump\t// in\n    tag_27:\n      stop\n        /* \"FundMe2.sol\":207:231  address[] public funders */\n    tag_7:\n      callvalue\n      dup1\n      iszero\n      tag_29\n      jumpi\n      0x00\n      dup1\n      revert\n    tag_29:\n      pop\n      tag_30\n      0x04\n      dup1\n      calldatasize\n      sub\n      dup2\n      add\n      swap1\n      tag_31\n      swap2\n      swap1\n      tag_32\n      jump\t// in\n    tag_31:\n      tag_33\n      jump\t// in\n    tag_30:\n      mload(0x40)\n      tag_34\n      swap2\n      swap1\n      tag_26\n      jump\t// in\n    tag_34:\n      mload(0x40)\n      dup1\n      swap2\n      sub\n      swap1\n      return\n        /* \"FundMe2.sol\":171:201  uint256 public minimumusd=5e18 */\n    tag_10:\n      sload(0x00)\n      dup2\n      jump\t// out\n        /* \"FundMe2.sol\":725:3106  function withdraw() public {... */\n    tag_15:\n        /* \"FundMe2.sol\":864:869  owner */\n      0x03\n      0x00\n      swap1\n      sload\n      swap1\n      0x0100\n      exp\n      swap1\n      div\n      0xffffffffffffffffffffffffffffffffffffffff\n      and\n        /* \"FundMe2.sol\":850:869  msg.sender == owner */\n      0xffffffffffffffffffffffffffffffffffffffff\n      and\n        /* \"FundMe2.sol\":850:860  msg.sender */\n      caller\n        /* \"FundMe2.sol\":850:869  msg.sender == owner */\n      0xffffffffffffffffffffffffffffffffffffffff\n      and\n      eq\n        /* \"FundMe2.sol\":842:889  require(msg.sender == owner , \"Must be owner!\") */\n      tag_36\n      jumpi\n      mload(0x40)\n      0x08c379a000000000000000000000000000000000000000000000000000000000\n      dup2\n      mstore\n      0x04\n      add\n      tag_37\n      swap1\n      tag_38\n      jump\t// in\n    tag_37:\n      mload(0x40)\n      dup1\n      swap2\n      sub\n      swap1\n      revert\n    tag_36:\n        /* \"FundMe2.sol\":1073:1092  uint256 funderIndex */\n      0x00\n        /* \"FundMe2.sol\":1069:1264  for(uint256 funderIndex = 0; funderIndex < funders.length; funderIndex=funderIndex +1) {... */\n    tag_39:\n        /* \"FundMe2.sol\":1112:1119  funders */\n      0x01\n        /* \"FundMe2.sol\":1112:1126  funders.length */\n      dup1\n      sload\n      swap1\n      pop\n        /* \"FundMe2.sol\":1098:1109  funderIndex */\n      dup2\n        /* \"FundMe2.sol\":1098:1126  funderIndex < funders.length */\n      lt\n        /* \"FundMe2.sol\":1069:1264  for(uint256 funderIndex = 0; funderIndex < funders.length; funderIndex=funderIndex +1) {... */\n      iszero\n      tag_40\n      jumpi\n        /* \"FundMe2.sol\":1170:1184  address funder */\n      0x00\n        /* \"FundMe2.sol\":1186:1193  funders */\n      0x01\n        /* \"FundMe2.sol\":1194:1205  funderIndex */\n      dup3\n        /* \"FundMe2.sol\":1186:1206  funders[funderIndex] */\n      dup2\n      sload\n      dup2\n      lt\n      tag_42\n      jumpi\n      tag_43\n      tag_44\n      jump\t// in\n    tag_43:\n    tag_42:\n      swap1\n      0x00\n      mstore\n      keccak256(0x00, 0x20)\n      add\n      0x00\n      swap1\n      sload\n      swap1\n      0x0100\n      exp\n      swap1\n      div\n      0xffffffffffffffffffffffffffffffffffffffff\n      and\n        /* \"FundMe2.sol\":1170:1206  address funder= funders[funderIndex] */\n      swap1\n      pop\n        /* \"FundMe2.sol\":1252:1253  0 */\n      0x00\n        /* \"FundMe2.sol\":1220:1241  addressToAmountFunded */\n      0x02\n        /* \"FundMe2.sol\":1220:1249  addressToAmountFunded[funder] */\n      0x00\n        /* \"FundMe2.sol\":1242:1248  funder */\n      dup4\n        /* \"FundMe2.sol\":1220:1249  addressToAmountFunded[funder] */\n      0xffffffffffffffffffffffffffffffffffffffff\n      and\n      0xffffffffffffffffffffffffffffffffffffffff\n      and\n      dup2\n      mstore\n      0x20\n      add\n      swap1\n      dup2\n      mstore\n      0x20\n      add\n      0x00\n      keccak256\n        /* \"FundMe2.sol\":1220:1253  addressToAmountFunded[funder] = 0 */\n      dup2\n      swap1\n      sstore\n      pop\n        /* \"FundMe2.sol\":1156:1264  {... */\n      pop\n        /* \"FundMe2.sol\":1153:1154  1 */\n      0x01\n        /* \"FundMe2.sol\":1140:1151  funderIndex */\n      dup2\n        /* \"FundMe2.sol\":1140:1154  funderIndex +1 */\n      tag_46\n      swap2\n      swap1\n      tag_47\n      jump\t// in\n    tag_46:\n        /* \"FundMe2.sol\":1128:1154  funderIndex=funderIndex +1 */\n      swap1\n      pop\n        /* \"FundMe2.sol\":1069:1264  for(uint256 funderIndex = 0; funderIndex < funders.length; funderIndex=funderIndex +1) {... */\n      jump(tag_39)\n    tag_40:\n      pop\n        /* \"FundMe2.sol\":1324:1325  0 */\n      0x00\n        /* \"FundMe2.sol\":1310:1326  new address[](0) */\n      0xffffffffffffffff\n      dup2\n      gt\n      iszero\n      tag_48\n      jumpi\n      tag_49\n      tag_50\n      jump\t// in\n    tag_49:\n    tag_48:\n      mload(0x40)\n      swap1\n      dup1\n      dup3\n      mstore\n      dup1\n      0x20\n      mul\n      0x20\n      add\n      dup3\n      add\n      0x40\n      mstore\n      dup1\n      iszero\n      tag_51\n      jumpi\n      dup2\n      0x20\n      add\n      0x20\n      dup3\n      mul\n      dup1\n      calldatasize\n      dup4\n      calldatacopy\n      dup1\n      dup3\n      add\n      swap2\n      pop\n      pop\n      swap1\n      pop\n    tag_51:\n      pop\n        /* \"FundMe2.sol\":1300:1307  funders */\n      0x01\n        /* \"FundMe2.sol\":1300:1326  funders = new address[](0) */\n      swap1\n      dup1\n      mload\n      swap1\n      0x20\n      add\n      swap1\n      tag_52\n      swap3\n      swap2\n      swap1\n      tag_53\n      jump\t// in\n    tag_52:\n      pop\n        /* \"FundMe2.sol\":1613:1623  msg.sender */\n      caller\n        /* \"FundMe2.sol\":1605:1633  payable(msg.sender).transfer */\n      0xffffffffffffffffffffffffffffffffffffffff\n      and\n        /* \"FundMe2.sol\":1605:1656  payable(msg.sender).transfer(address(this).balance) */\n      0x08fc\n        /* \"FundMe2.sol\":1634:1655  address(this).balance */\n      selfbalance\n        /* \"FundMe2.sol\":1605:1656  payable(msg.sender).transfer(address(this).balance) */\n      swap1\n      dup2\n      iszero\n      mul\n      swap1\n      mload(0x40)\n      0x00\n      mload(0x40)\n      dup1\n      dup4\n      sub\n      dup2\n      dup6\n      dup9\n      dup9\n      call\n      swap4\n      pop\n      pop\n      pop\n      pop\n      iszero\n      dup1\n      iszero\n      tag_55\n      jumpi\n      returndatasize\n      0x00\n      dup1\n      returndatacopy\n      revert(0x00, returndatasize)\n    tag_55:\n      pop\n        /* \"FundMe2.sol\":1924:1940  bool sendSuccess */\n      0x00\n        /* \"FundMe2.sol\":1949:1959  msg.sender */\n      caller\n        /* \"FundMe2.sol\":1941:1965  payable(msg.sender).send */\n      0xffffffffffffffffffffffffffffffffffffffff\n      and\n        /* \"FundMe2.sol\":1941:1988  payable(msg.sender).send(address(this).balance) */\n      0x08fc\n        /* \"FundMe2.sol\":1966:1987  address(this).balance */\n      selfbalance\n        /* \"FundMe2.sol\":1941:1988  payable(msg.sender).send(address(this).balance) */\n      swap1\n      dup2\n      iszero\n      mul\n      swap1\n      mload(0x40)\n      0x00\n      mload(0x40)\n      dup1\n      dup4\n      sub\n      dup2\n      dup6\n      dup9\n      dup9\n      call\n      swap4\n      pop\n      pop\n      pop\n      pop\n        /* \"FundMe2.sol\":1924:1988  bool sendSuccess=payable(msg.sender).send(address(this).balance) */\n      swap1\n      pop\n        /* \"FundMe2.sol\":2073:2084  sendSuccess */\n      dup1\n        /* \"FundMe2.sol\":2065:2098  require(sendSuccess,\"Send faile\") */\n      tag_57\n      jumpi\n      mload(0x40)\n      0x08c379a000000000000000000000000000000000000000000000000000000000\n      dup2\n      mstore\n      0x04\n      add\n      tag_58\n      swap1\n      tag_59\n      jump\t// in\n    tag_58:\n      mload(0x40)\n      dup1\n      swap2\n      sub\n      swap1\n      revert\n    tag_57:\n        /* \"FundMe2.sol\":2976:2992  bool callSuccess */\n      0x00\n        /* \"FundMe2.sol\":3004:3014  msg.sender */\n      caller\n        /* \"FundMe2.sol\":2996:3020  payable(msg.sender).call */\n      0xffffffffffffffffffffffffffffffffffffffff\n      and\n        /* \"FundMe2.sol\":3027:3048  address(this).balance */\n      selfbalance\n        /* \"FundMe2.sol\":2996:3053  payable(msg.sender).call{value:address(this).balance}(\"\") */\n      mload(0x40)\n      tag_60\n      swap1\n      tag_61\n      jump\t// in\n    tag_60:\n      0x00\n      mload(0x40)\n      dup1\n      dup4\n      sub\n      dup2\n      dup6\n      dup8\n      gas\n      call\n      swap3\n      pop\n      pop\n      pop\n      returndatasize\n      dup1\n      0x00\n      dup2\n      eq\n      tag_64\n      jumpi\n      mload(0x40)\n      swap2\n      pop\n      and(add(returndatasize, 0x3f), not(0x1f))\n      dup3\n      add\n      0x40\n      mstore\n      returndatasize\n      dup3\n      mstore\n      returndatasize\n      0x00\n      0x20\n      dup5\n      add\n      returndatacopy\n      jump(tag_63)\n    tag_64:\n      0x60\n      swap2\n      pop\n    tag_63:\n      pop\n        /* \"FundMe2.sol\":2975:3053  (bool callSuccess, )=payable(msg.sender).call{value:address(this).balance}(\"\") */\n      pop\n      swap1\n      pop\n        /* \"FundMe2.sol\":3071:3082  callSuccess */\n      dup1\n        /* \"FundMe2.sol\":3063:3099  require(callSuccess, \" call failed\") */\n      tag_65\n      jumpi\n      mload(0x40)\n      0x08c379a000000000000000000000000000000000000000000000000000000000\n      dup2\n      mstore\n      0x04\n      add\n      tag_66\n      swap1\n      tag_67\n      jump\t// in\n    tag_66:\n      mload(0x40)\n      dup1\n      swap2\n      sub\n      swap1\n      revert\n    tag_65:\n        /* \"FundMe2.sol\":752:3106  {... */\n      pop\n      pop\n        /* \"FundMe2.sol\":725:3106  function withdraw() public {... */\n      jump\t// out\n        /* \"FundMe2.sol\":237:313  mapping(address funder => uint256 amountFunded) public addressToAmountFunded */\n    tag_20:\n      mstore(0x20, 0x02)\n      dup1\n      0x00\n      mstore\n      keccak256(0x00, 0x40)\n      0x00\n      swap2\n      pop\n      swap1\n      pop\n      sload\n      dup2\n      jump\t// out\n        /* \"FundMe2.sol\":3435:3455  address public owner */\n    tag_24:\n      0x03\n      0x00\n      swap1\n      sload\n      swap1\n      0x0100\n      exp\n      swap1\n      div\n      0xffffffffffffffffffffffffffffffffffffffff\n      and\n      dup2\n      jump\t// out\n        /* \"FundMe2.sol\":320:720  function fund() public payable  {... */\n    tag_28:\n        /* \"FundMe2.sol\":402:412  minimumusd */\n      sload(0x00)\n        /* \"FundMe2.sol\":370:399  msg.value.getConversionRate() */\n      tag_69\n        /* \"FundMe2.sol\":370:379  msg.value */\n      callvalue\n        /* \"FundMe2.sol\":370:397  msg.value.getConversionRate */\n      tag_70\n        /* \"FundMe2.sol\":370:399  msg.value.getConversionRate() */\n      jump\t// in\n    tag_69:\n        /* \"FundMe2.sol\":370:412  msg.value.getConversionRate() >=minimumusd */\n      lt\n      iszero\n        /* \"FundMe2.sol\":362:438  require(msg.value.getConversionRate() >=minimumusd,\"didn't send enough ETH\") */\n      tag_71\n      jumpi\n      mload(0x40)\n      0x08c379a000000000000000000000000000000000000000000000000000000000\n      dup2\n      mstore\n      0x04\n      add\n      tag_72\n      swap1\n      tag_73\n      jump\t// in\n    tag_72:\n      mload(0x40)\n      dup1\n      swap2\n      sub\n      swap1\n      revert\n    tag_71:\n        /* \"FundMe2.sol\":450:457  funders */\n      0x01\n        /* \"FundMe2.sol\":463:473  msg.sender */\n      caller\n        /* \"FundMe2.sol\":450:474  funders.push(msg.sender) */\n      swap1\n      dup1\n      0x01\n      dup2\n      sload\n      add\n      dup1\n      dup3\n      sstore\n      dup1\n      swap2\n      pop\n      pop\n      0x01\n      swap1\n      sub\n      swap1\n      0x00\n      mstore\n      keccak256(0x00, 0x20)\n      add\n      0x00\n      swap1\n      swap2\n      swap1\n      swap2\n      swap1\n      swap2\n      0x0100\n      exp\n      dup2\n      sload\n      dup2\n      0xffffffffffffffffffffffffffffffffffffffff\n      mul\n      not\n      and\n      swap1\n      dup4\n      0xffffffffffffffffffffffffffffffffffffffff\n      and\n      mul\n      or\n      swap1\n      sstore\n      pop\n        /* \"FundMe2.sol\":703:712  msg.value */\n      callvalue\n        /* \"FundMe2.sol\":666:687  addressToAmountFunded */\n      0x02\n        /* \"FundMe2.sol\":666:699  addressToAmountFunded[msg.sender] */\n      0x00\n        /* \"FundMe2.sol\":688:698  msg.sender */\n      caller\n        /* \"FundMe2.sol\":666:699  addressToAmountFunded[msg.sender] */\n      0xffffffffffffffffffffffffffffffffffffffff\n      and\n      0xffffffffffffffffffffffffffffffffffffffff\n      and\n      dup2\n      mstore\n      0x20\n      add\n      swap1\n      dup2\n      mstore\n      0x20\n      add\n      0x00\n      keccak256\n      0x00\n        /* \"FundMe2.sol\":666:712  addressToAmountFunded[msg.sender] += msg.value */\n      dup3\n      dup3\n      sload\n      tag_75\n      swap2\n      swap1\n      tag_47\n      jump\t// in\n    tag_75:\n      swap3\n      pop\n      pop\n      dup2\n      swap1\n      sstore\n      pop\n        /* \"FundMe2.sol\":320:720  function fund() public payable  {... */\n      jump\t// out\n        /* \"FundMe2.sol\":207:231  address[] public funders */\n    tag_33:\n      0x01\n      dup2\n      dup2\n      sload\n      dup2\n      lt\n      tag_76\n      jumpi\n      0x00\n      dup1\n      revert\n    tag_76:\n      swap1\n      0x00\n      mstore\n      keccak256(0x00, 0x20)\n      add\n      0x00\n      swap2\n      pop\n      sload\n      swap1\n      0x0100\n      exp\n      swap1\n      div\n      0xffffffffffffffffffffffffffffffffffffffff\n      and\n      dup2\n      jump\t// out\n        /* \"PriceConverter.sol\":645:862  function getConversionRate(uint256 ethAmount) internal view returns(uint256) {... */\n    tag_70:\n        /* \"PriceConverter.sol\":713:720  uint256 */\n      0x00\n        /* \"PriceConverter.sol\":732:748  uint256 ethPrice */\n      dup1\n        /* \"PriceConverter.sol\":751:761  getPrice() */\n      tag_79\n        /* \"PriceConverter.sol\":751:759  getPrice */\n      tag_80\n        /* \"PriceConverter.sol\":751:761  getPrice() */\n      jump\t// in\n    tag_79:\n        /* \"PriceConverter.sol\":732:761  uint256 ethPrice = getPrice() */\n      swap1\n      pop\n        /* \"PriceConverter.sol\":772:794  uint256 ethAmountTnUsd */\n      0x00\n        /* \"PriceConverter.sol\":819:823  1e18 */\n      0x0de0b6b3a7640000\n        /* \"PriceConverter.sol\":808:817  ethAmount */\n      dup5\n        /* \"PriceConverter.sol\":797:805  ethPrice */\n      dup4\n        /* \"PriceConverter.sol\":797:817  ethPrice * ethAmount */\n      tag_81\n      swap2\n      swap1\n      tag_82\n      jump\t// in\n    tag_81:\n        /* \"PriceConverter.sol\":796:823  (ethPrice * ethAmount)/1e18 */\n      tag_83\n      swap2\n      swap1\n      tag_84\n      jump\t// in\n    tag_83:\n        /* \"PriceConverter.sol\":772:823  uint256 ethAmountTnUsd= (ethPrice * ethAmount)/1e18 */\n      swap1\n      pop\n        /* \"PriceConverter.sol\":840:854  ethAmountTnUsd */\n      dup1\n        /* \"PriceConverter.sol\":833:854  return ethAmountTnUsd */\n      swap3\n      pop\n      pop\n      pop\n        /* \"PriceConverter.sol\":645:862  function getConversionRate(uint256 ethAmount) internal view returns(uint256) {... */\n      swap2\n      swap1\n      pop\n      jump\t// out\n        /* \"PriceConverter.sol\":288:640  function getPrice() internal view returns(uint256) {... */\n    tag_80:\n        /* \"PriceConverter.sol\":330:337  uint256 */\n      0x00\n        /* \"PriceConverter.sol\":425:456  AggregatorV3Interface priceFeed */\n      dup1\n        /* \"PriceConverter.sol\":479:521  0x1a81afB8146aeFfCFc5E50e8479e826E7D55b910 */\n      0x1a81afb8146aeffcfc5e50e8479e826e7d55b910\n        /* \"PriceConverter.sol\":425:522  AggregatorV3Interface priceFeed=AggregatorV3Interface(0x1a81afB8146aeFfCFc5E50e8479e826E7D55b910) */\n      swap1\n      pop\n        /* \"PriceConverter.sol\":542:554  int256 price */\n      0x00\n        /* \"PriceConverter.sol\":559:568  priceFeed */\n      dup2\n        /* \"PriceConverter.sol\":559:584  priceFeed.latestRoundData */\n      0xffffffffffffffffffffffffffffffffffffffff\n      and\n      0xfeaf968c\n        /* \"PriceConverter.sol\":559:586  priceFeed.latestRoundData() */\n      mload(0x40)\n      dup2\n      0xffffffff\n      and\n      0xe0\n      shl\n      dup2\n      mstore\n      0x04\n      add\n      0xa0\n      mload(0x40)\n      dup1\n      dup4\n      sub\n      dup2\n      dup7\n      gas\n      staticcall\n      iszero\n      dup1\n      iszero\n      tag_87\n      jumpi\n      returndatasize\n      0x00\n      dup1\n      returndatacopy\n      revert(0x00, returndatasize)\n    tag_87:\n      pop\n      pop\n      pop\n      pop\n      mload(0x40)\n      returndatasize\n      not(0x1f)\n      0x1f\n      dup3\n      add\n      and\n      dup3\n      add\n      dup1\n      0x40\n      mstore\n      pop\n      dup2\n      add\n      swap1\n      tag_88\n      swap2\n      swap1\n      tag_89\n      jump\t// in\n    tag_88:\n        /* \"PriceConverter.sol\":540:586  (,int256 price,,,)=priceFeed.latestRoundData() */\n      pop\n      pop\n      pop\n      swap2\n      pop\n      pop\n        /* \"PriceConverter.sol\":627:631  1e10 */\n      0x02540be400\n        /* \"PriceConverter.sol\":620:625  price */\n      dup2\n        /* \"PriceConverter.sol\":620:631  price *1e10 */\n      tag_90\n      swap2\n      swap1\n      tag_91\n      jump\t// in\n    tag_90:\n        /* \"PriceConverter.sol\":605:632  return uint256(price *1e10) */\n      swap3\n      pop\n      pop\n      pop\n        /* \"PriceConverter.sol\":288:640  function getPrice() internal view returns(uint256) {... */\n      swap1\n      jump\t// out\n    tag_53:\n      dup3\n      dup1\n      sload\n      dup3\n      dup3\n      sstore\n      swap1\n      0x00\n      mstore\n      keccak256(0x00, 0x20)\n      swap1\n      dup2\n      add\n      swap3\n      dup3\n      iszero\n      tag_92\n      jumpi\n      swap2\n      0x20\n      mul\n      dup3\n      add\n    tag_93:\n      dup3\n      dup2\n      gt\n      iszero\n      tag_94\n      jumpi\n      dup3\n      mload\n      dup3\n      exp(0x0100, 0x00)\n      dup2\n      sload\n      dup2\n      0xffffffffffffffffffffffffffffffffffffffff\n      mul\n      not\n      and\n      swap1\n      dup4\n      0xffffffffffffffffffffffffffffffffffffffff\n      and\n      mul\n      or\n      swap1\n      sstore\n      pop\n      swap2\n      0x20\n      add\n      swap2\n      swap1\n      0x01\n      add\n      swap1\n      jump(tag_93)\n    tag_94:\n    tag_92:\n      pop\n      swap1\n      pop\n      tag_95\n      swap2\n      swap1\n      tag_96\n      jump\t// in\n    tag_95:\n      pop\n      swap1\n      jump\t// out\n    tag_96:\n    tag_97:\n      dup1\n      dup3\n      gt\n      iszero\n      tag_98\n      jumpi\n      0x00\n      dup2\n      0x00\n      swap1\n      sstore\n      pop\n      0x01\n      add\n      jump(tag_97)\n    tag_98:\n      pop\n      swap1\n      jump\t// out\n        /* \"#utility.yul\":7:84   */\n    tag_99:\n        /* \"#utility.yul\":44:51   */\n      0x00\n        /* \"#utility.yul\":73:78   */\n      dup2\n        /* \"#utility.yul\":62:78   */\n      swap1\n      pop\n        /* \"#utility.yul\":7:84   */\n      swap2\n      swap1\n      pop\n      jump\t// out\n        /* \"#utility.yul\":90:208   */\n    tag_100:\n        /* \"#utility.yul\":177:201   */\n      tag_135\n        /* \"#utility.yul\":195:200   */\n      dup2\n        /* \"#utility.yul\":177:201   */\n      tag_99\n      jump\t// in\n    tag_135:\n        /* \"#utility.yul\":172:175   */\n      dup3\n        /* \"#utility.yul\":165:202   */\n      mstore\n        /* \"#utility.yul\":90:208   */\n      pop\n      pop\n      jump\t// out\n        /* \"#utility.yul\":214:436   */\n    tag_12:\n        /* \"#utility.yul\":307:311   */\n      0x00\n        /* \"#utility.yul\":345:347   */\n      0x20\n        /* \"#utility.yul\":334:343   */\n      dup3\n        /* \"#utility.yul\":330:348   */\n      add\n        /* \"#utility.yul\":322:348   */\n      swap1\n      pop\n        /* \"#utility.yul\":358:429   */\n      tag_137\n        /* \"#utility.yul\":426:427   */\n      0x00\n        /* \"#utility.yul\":415:424   */\n      dup4\n        /* \"#utility.yul\":411:428   */\n      add\n        /* \"#utility.yul\":402:408   */\n      dup5\n        /* \"#utility.yul\":358:429   */\n      tag_100\n      jump\t// in\n    tag_137:\n        /* \"#utility.yul\":214:436   */\n      swap3\n      swap2\n      pop\n      pop\n      jump\t// out\n        /* \"#utility.yul\":523:640   */\n    tag_102:\n        /* \"#utility.yul\":632:633   */\n      0x00\n        /* \"#utility.yul\":629:630   */\n      dup1\n        /* \"#utility.yul\":622:634   */\n      revert\n        /* \"#utility.yul\":769:895   */\n    tag_104:\n        /* \"#utility.yul\":806:813   */\n      0x00\n        /* \"#utility.yul\":846:888   */\n      0xffffffffffffffffffffffffffffffffffffffff\n        /* \"#utility.yul\":839:844   */\n      dup3\n        /* \"#utility.yul\":835:889   */\n      and\n        /* \"#utility.yul\":824:889   */\n      swap1\n      pop\n        /* \"#utility.yul\":769:895   */\n      swap2\n      swap1\n      pop\n      jump\t// out\n        /* \"#utility.yul\":901:997   */\n    tag_105:\n        /* \"#utility.yul\":938:945   */\n      0x00\n        /* \"#utility.yul\":967:991   */\n      tag_143\n        /* \"#utility.yul\":985:990   */\n      dup3\n        /* \"#utility.yul\":967:991   */\n      tag_104\n      jump\t// in\n    tag_143:\n        /* \"#utility.yul\":956:991   */\n      swap1\n      pop\n        /* \"#utility.yul\":901:997   */\n      swap2\n      swap1\n      pop\n      jump\t// out\n        /* \"#utility.yul\":1003:1125   */\n    tag_106:\n        /* \"#utility.yul\":1076:1100   */\n      tag_145\n        /* \"#utility.yul\":1094:1099   */\n      dup2\n        /* \"#utility.yul\":1076:1100   */\n      tag_105\n      jump\t// in\n    tag_145:\n        /* \"#utility.yul\":1069:1074   */\n      dup2\n        /* \"#utility.yul\":1066:1101   */\n      eq\n        /* \"#utility.yul\":1056:1119   */\n      tag_146\n      jumpi\n        /* \"#utility.yul\":1115:1116   */\n      0x00\n        /* \"#utility.yul\":1112:1113   */\n      dup1\n        /* \"#utility.yul\":1105:1117   */\n      revert\n        /* \"#utility.yul\":1056:1119   */\n    tag_146:\n        /* \"#utility.yul\":1003:1125   */\n      pop\n      jump\t// out\n        /* \"#utility.yul\":1131:1270   */\n    tag_107:\n        /* \"#utility.yul\":1177:1182   */\n      0x00\n        /* \"#utility.yul\":1215:1221   */\n      dup2\n        /* \"#utility.yul\":1202:1222   */\n      calldataload\n        /* \"#utility.yul\":1193:1222   */\n      swap1\n      pop\n        /* \"#utility.yul\":1231:1264   */\n      tag_148\n        /* \"#utility.yul\":1258:1263   */\n      dup2\n        /* \"#utility.yul\":1231:1264   */\n      tag_106\n      jump\t// in\n    tag_148:\n        /* \"#utility.yul\":1131:1270   */\n      swap3\n      swap2\n      pop\n      pop\n      jump\t// out\n        /* \"#utility.yul\":1276:1605   */\n    tag_19:\n        /* \"#utility.yul\":1335:1341   */\n      0x00\n        /* \"#utility.yul\":1384:1386   */\n      0x20\n        /* \"#utility.yul\":1372:1381   */\n      dup3\n        /* \"#utility.yul\":1363:1370   */\n      dup5\n        /* \"#utility.yul\":1359:1382   */\n      sub\n        /* \"#utility.yul\":1355:1387   */\n      slt\n        /* \"#utility.yul\":1352:1471   */\n      iszero\n      tag_150\n      jumpi\n        /* \"#utility.yul\":1390:1469   */\n      tag_151\n      tag_102\n      jump\t// in\n    tag_151:\n        /* \"#utility.yul\":1352:1471   */\n    tag_150:\n        /* \"#utility.yul\":1510:1511   */\n      0x00\n        /* \"#utility.yul\":1535:1588   */\n      tag_152\n        /* \"#utility.yul\":1580:1587   */\n      dup5\n        /* \"#utility.yul\":1571:1577   */\n      dup3\n        /* \"#utility.yul\":1560:1569   */\n      dup6\n        /* \"#utility.yul\":1556:1578   */\n      add\n        /* \"#utility.yul\":1535:1588   */\n      tag_107\n      jump\t// in\n    tag_152:\n        /* \"#utility.yul\":1525:1588   */\n      swap2\n      pop\n        /* \"#utility.yul\":1481:1598   */\n      pop\n        /* \"#utility.yul\":1276:1605   */\n      swap3\n      swap2\n      pop\n      pop\n      jump\t// out\n        /* \"#utility.yul\":1611:1729   */\n    tag_108:\n        /* \"#utility.yul\":1698:1722   */\n      tag_154\n        /* \"#utility.yul\":1716:1721   */\n      dup2\n        /* \"#utility.yul\":1698:1722   */\n      tag_105\n      jump\t// in\n    tag_154:\n        /* \"#utility.yul\":1693:1696   */\n      dup3\n        /* \"#utility.yul\":1686:1723   */\n      mstore\n        /* \"#utility.yul\":1611:1729   */\n      pop\n      pop\n      jump\t// out\n        /* \"#utility.yul\":1735:1957   */\n    tag_26:\n        /* \"#utility.yul\":1828:1832   */\n      0x00\n        /* \"#utility.yul\":1866:1868   */\n      0x20\n        /* \"#utility.yul\":1855:1864   */\n      dup3\n        /* \"#utility.yul\":1851:1869   */\n      add\n        /* \"#utility.yul\":1843:1869   */\n      swap1\n      pop\n        /* \"#utility.yul\":1879:1950   */\n      tag_156\n        /* \"#utility.yul\":1947:1948   */\n      0x00\n        /* \"#utility.yul\":1936:1945   */\n      dup4\n        /* \"#utility.yul\":1932:1949   */\n      add\n        /* \"#utility.yul\":1923:1929   */\n      dup5\n        /* \"#utility.yul\":1879:1950   */\n      tag_108\n      jump\t// in\n    tag_156:\n        /* \"#utility.yul\":1735:1957   */\n      swap3\n      swap2\n      pop\n      pop\n      jump\t// out\n        /* \"#utility.yul\":1963:2085   */\n    tag_109:\n        /* \"#utility.yul\":2036:2060   */\n      tag_158\n        /* \"#utility.yul\":2054:2059   */\n      dup2\n        /* \"#utility.yul\":2036:2060   */\n      tag_99\n      jump\t// in\n    tag_158:\n        /* \"#utility.yul\":2029:2034   */\n      dup2\n        /* \"#utility.yul\":2026:2061   */\n      eq\n        /* \"#utility.yul\":2016:2079   */\n      tag_159\n      jumpi\n        /* \"#utility.yul\":2075:2076   */\n      0x00\n        /* \"#utility.yul\":2072:2073   */\n      dup1\n        /* \"#utility.yul\":2065:2077   */\n      revert\n        /* \"#utility.yul\":2016:2079   */\n    tag_159:\n        /* \"#utility.yul\":1963:2085   */\n      pop\n      jump\t// out\n        /* \"#utility.yul\":2091:2230   */\n    tag_110:\n        /* \"#utility.yul\":2137:2142   */\n      0x00\n        /* \"#utility.yul\":2175:2181   */\n      dup2\n        /* \"#utility.yul\":2162:2182   */\n      calldataload\n        /* \"#utility.yul\":2153:2182   */\n      swap1\n      pop\n        /* \"#utility.yul\":2191:2224   */\n      tag_161\n        /* \"#utility.yul\":2218:2223   */\n      dup2\n        /* \"#utility.yul\":2191:2224   */\n      tag_109\n      jump\t// in\n    tag_161:\n        /* \"#utility.yul\":2091:2230   */\n      swap3\n      swap2\n      pop\n      pop\n      jump\t// out\n        /* \"#utility.yul\":2236:2565   */\n    tag_32:\n        /* \"#utility.yul\":2295:2301   */\n      0x00\n        /* \"#utility.yul\":2344:2346   */\n      0x20\n        /* \"#utility.yul\":2332:2341   */\n      dup3\n        /* \"#utility.yul\":2323:2330   */\n      dup5\n        /* \"#utility.yul\":2319:2342   */\n      sub\n        /* \"#utility.yul\":2315:2347   */\n      slt\n        /* \"#utility.yul\":2312:2431   */\n      iszero\n      tag_163\n      jumpi\n        /* \"#utility.yul\":2350:2429   */\n      tag_164\n      tag_102\n      jump\t// in\n    tag_164:\n        /* \"#utility.yul\":2312:2431   */\n    tag_163:\n        /* \"#utility.yul\":2470:2471   */\n      0x00\n        /* \"#utility.yul\":2495:2548   */\n      tag_165\n        /* \"#utility.yul\":2540:2547   */\n      dup5\n        /* \"#utility.yul\":2531:2537   */\n      dup3\n        /* \"#utility.yul\":2520:2529   */\n      dup6\n        /* \"#utility.yul\":2516:2538   */\n      add\n        /* \"#utility.yul\":2495:2548   */\n      tag_110\n      jump\t// in\n    tag_165:\n        /* \"#utility.yul\":2485:2548   */\n      swap2\n      pop\n        /* \"#utility.yul\":2441:2558   */\n      pop\n        /* \"#utility.yul\":2236:2565   */\n      swap3\n      swap2\n      pop\n      pop\n      jump\t// out\n        /* \"#utility.yul\":2571:2740   */\n    tag_111:\n        /* \"#utility.yul\":2655:2666   */\n      0x00\n        /* \"#utility.yul\":2689:2695   */\n      dup3\n        /* \"#utility.yul\":2684:2687   */\n      dup3\n        /* \"#utility.yul\":2677:2696   */\n      mstore\n        /* \"#utility.yul\":2729:2733   */\n      0x20\n        /* \"#utility.yul\":2724:2727   */\n      dup3\n        /* \"#utility.yul\":2720:2734   */\n      add\n        /* \"#utility.yul\":2705:2734   */\n      swap1\n      pop\n        /* \"#utility.yul\":2571:2740   */\n      swap3\n      swap2\n      pop\n      pop\n      jump\t// out\n        /* \"#utility.yul\":2746:2910   */\n    tag_112:\n        /* \"#utility.yul\":2886:2902   */\n      0x4d757374206265206f776e657221000000000000000000000000000000000000\n        /* \"#utility.yul\":2882:2883   */\n      0x00\n        /* \"#utility.yul\":2874:2880   */\n      dup3\n        /* \"#utility.yul\":2870:2884   */\n      add\n        /* \"#utility.yul\":2863:2903   */\n      mstore\n        /* \"#utility.yul\":2746:2910   */\n      pop\n      jump\t// out\n        /* \"#utility.yul\":2916:3282   */\n    tag_113:\n        /* \"#utility.yul\":3058:3061   */\n      0x00\n        /* \"#utility.yul\":3079:3146   */\n      tag_169\n        /* \"#utility.yul\":3143:3145   */\n      0x0e\n        /* \"#utility.yul\":3138:3141   */\n      dup4\n        /* \"#utility.yul\":3079:3146   */\n      tag_111\n      jump\t// in\n    tag_169:\n        /* \"#utility.yul\":3072:3146   */\n      swap2\n      pop\n        /* \"#utility.yul\":3155:3248   */\n      tag_170\n        /* \"#utility.yul\":3244:3247   */\n      dup3\n        /* \"#utility.yul\":3155:3248   */\n      tag_112\n      jump\t// in\n    tag_170:\n        /* \"#utility.yul\":3273:3275   */\n      0x20\n        /* \"#utility.yul\":3268:3271   */\n      dup3\n        /* \"#utility.yul\":3264:3276   */\n      add\n        /* \"#utility.yul\":3257:3276   */\n      swap1\n      pop\n        /* \"#utility.yul\":2916:3282   */\n      swap2\n      swap1\n      pop\n      jump\t// out\n        /* \"#utility.yul\":3288:3707   */\n    tag_38:\n        /* \"#utility.yul\":3454:3458   */\n      0x00\n        /* \"#utility.yul\":3492:3494   */\n      0x20\n        /* \"#utility.yul\":3481:3490   */\n      dup3\n        /* \"#utility.yul\":3477:3495   */\n      add\n        /* \"#utility.yul\":3469:3495   */\n      swap1\n      pop\n        /* \"#utility.yul\":3541:3550   */\n      dup2\n        /* \"#utility.yul\":3535:3539   */\n      dup2\n        /* \"#utility.yul\":3531:3551   */\n      sub\n        /* \"#utility.yul\":3527:3528   */\n      0x00\n        /* \"#utility.yul\":3516:3525   */\n      dup4\n        /* \"#utility.yul\":3512:3529   */\n      add\n        /* \"#utility.yul\":3505:3552   */\n      mstore\n        /* \"#utility.yul\":3569:3700   */\n      tag_172\n        /* \"#utility.yul\":3695:3699   */\n      dup2\n        /* \"#utility.yul\":3569:3700   */\n      tag_113\n      jump\t// in\n    tag_172:\n        /* \"#utility.yul\":3561:3700   */\n      swap1\n      pop\n        /* \"#utility.yul\":3288:3707   */\n      swap2\n      swap1\n      pop\n      jump\t// out\n        /* \"#utility.yul\":3713:3893   */\n    tag_44:\n        /* \"#utility.yul\":3761:3838   */\n      0x4e487b7100000000000000000000000000000000000000000000000000000000\n        /* \"#utility.yul\":3758:3759   */\n      0x00\n        /* \"#utility.yul\":3751:3839   */\n      mstore\n        /* \"#utility.yul\":3858:3862   */\n      0x32\n        /* \"#utility.yul\":3855:3856   */\n      0x04\n        /* \"#utility.yul\":3848:3863   */\n      mstore\n        /* \"#utility.yul\":3882:3886   */\n      0x24\n        /* \"#utility.yul\":3879:3880   */\n      0x00\n        /* \"#utility.yul\":3872:3887   */\n      revert\n        /* \"#utility.yul\":3899:4079   */\n    tag_114:\n        /* \"#utility.yul\":3947:4024   */\n      0x4e487b7100000000000000000000000000000000000000000000000000000000\n        /* \"#utility.yul\":3944:3945   */\n      0x00\n        /* \"#utility.yul\":3937:4025   */\n      mstore\n        /* \"#utility.yul\":4044:4048   */\n      0x11\n        /* \"#utility.yul\":4041:4042   */\n      0x04\n        /* \"#utility.yul\":4034:4049   */\n      mstore\n        /* \"#utility.yul\":4068:4072   */\n      0x24\n        /* \"#utility.yul\":4065:4066   */\n      0x00\n        /* \"#utility.yul\":4058:4073   */\n      revert\n        /* \"#utility.yul\":4085:4276   */\n    tag_47:\n        /* \"#utility.yul\":4125:4128   */\n      0x00\n        /* \"#utility.yul\":4144:4164   */\n      tag_176\n        /* \"#utility.yul\":4162:4163   */\n      dup3\n        /* \"#utility.yul\":4144:4164   */\n      tag_99\n      jump\t// in\n    tag_176:\n        /* \"#utility.yul\":4139:4164   */\n      swap2\n      pop\n        /* \"#utility.yul\":4178:4198   */\n      tag_177\n        /* \"#utility.yul\":4196:4197   */\n      dup4\n        /* \"#utility.yul\":4178:4198   */\n      tag_99\n      jump\t// in\n    tag_177:\n        /* \"#utility.yul\":4173:4198   */\n      swap3\n      pop\n        /* \"#utility.yul\":4221:4222   */\n      dup3\n        /* \"#utility.yul\":4218:4219   */\n      dup3\n        /* \"#utility.yul\":4214:4223   */\n      add\n        /* \"#utility.yul\":4207:4223   */\n      swap1\n      pop\n        /* \"#utility.yul\":4242:4245   */\n      dup1\n        /* \"#utility.yul\":4239:4240   */\n      dup3\n        /* \"#utility.yul\":4236:4246   */\n      gt\n        /* \"#utility.yul\":4233:4269   */\n      iszero\n      tag_178\n      jumpi\n        /* \"#utility.yul\":4249:4267   */\n      tag_179\n      tag_114\n      jump\t// in\n    tag_179:\n        /* \"#utility.yul\":4233:4269   */\n    tag_178:\n        /* \"#utility.yul\":4085:4276   */\n      swap3\n      swap2\n      pop\n      pop\n      jump\t// out\n        /* \"#utility.yul\":4282:4462   */\n    tag_50:\n        /* \"#utility.yul\":4330:4407   */\n      0x4e487b7100000000000000000000000000000000000000000000000000000000\n        /* \"#utility.yul\":4327:4328   */\n      0x00\n        /* \"#utility.yul\":4320:4408   */\n      mstore\n        /* \"#utility.yul\":4427:4431   */\n      0x41\n        /* \"#utility.yul\":4424:4425   */\n      0x04\n        /* \"#utility.yul\":4417:4432   */\n      mstore\n        /* \"#utility.yul\":4451:4455   */\n      0x24\n        /* \"#utility.yul\":4448:4449   */\n      0x00\n        /* \"#utility.yul\":4441:4456   */\n      revert\n        /* \"#utility.yul\":4468:4628   */\n    tag_115:\n        /* \"#utility.yul\":4608:4620   */\n      0x53656e64206661696c6500000000000000000000000000000000000000000000\n        /* \"#utility.yul\":4604:4605   */\n      0x00\n        /* \"#utility.yul\":4596:4602   */\n      dup3\n        /* \"#utility.yul\":4592:4606   */\n      add\n        /* \"#utility.yul\":4585:4621   */\n      mstore\n        /* \"#utility.yul\":4468:4628   */\n      pop\n      jump\t// out\n        /* \"#utility.yul\":4634:5000   */\n    tag_116:\n        /* \"#utility.yul\":4776:4779   */\n      0x00\n        /* \"#utility.yul\":4797:4864   */\n      tag_183\n        /* \"#utility.yul\":4861:4863   */\n      0x0a\n        /* \"#utility.yul\":4856:4859   */\n      dup4\n        /* \"#utility.yul\":4797:4864   */\n      tag_111\n      jump\t// in\n    tag_183:\n        /* \"#utility.yul\":4790:4864   */\n      swap2\n      pop\n        /* \"#utility.yul\":4873:4966   */\n      tag_184\n        /* \"#utility.yul\":4962:4965   */\n      dup3\n        /* \"#utility.yul\":4873:4966   */\n      tag_115\n      jump\t// in\n    tag_184:\n        /* \"#utility.yul\":4991:4993   */\n      0x20\n        /* \"#utility.yul\":4986:4989   */\n      dup3\n        /* \"#utility.yul\":4982:4994   */\n      add\n        /* \"#utility.yul\":4975:4994   */\n      swap1\n      pop\n        /* \"#utility.yul\":4634:5000   */\n      swap2\n      swap1\n      pop\n      jump\t// out\n        /* \"#utility.yul\":5006:5425   */\n    tag_59:\n        /* \"#utility.yul\":5172:5176   */\n      0x00\n        /* \"#utility.yul\":5210:5212   */\n      0x20\n        /* \"#utility.yul\":5199:5208   */\n      dup3\n        /* \"#utility.yul\":5195:5213   */\n      add\n        /* \"#utility.yul\":5187:5213   */\n      swap1\n      pop\n        /* \"#utility.yul\":5259:5268   */\n      dup2\n        /* \"#utility.yul\":5253:5257   */\n      dup2\n        /* \"#utility.yul\":5249:5269   */\n      sub\n        /* \"#utility.yul\":5245:5246   */\n      0x00\n        /* \"#utility.yul\":5234:5243   */\n      dup4\n        /* \"#utility.yul\":5230:5247   */\n      add\n        /* \"#utility.yul\":5223:5270   */\n      mstore\n        /* \"#utility.yul\":5287:5418   */\n      tag_186\n        /* \"#utility.yul\":5413:5417   */\n      dup2\n        /* \"#utility.yul\":5287:5418   */\n      tag_116\n      jump\t// in\n    tag_186:\n        /* \"#utility.yul\":5279:5418   */\n      swap1\n      pop\n        /* \"#utility.yul\":5006:5425   */\n      swap2\n      swap1\n      pop\n      jump\t// out\n        /* \"#utility.yul\":5431:5578   */\n    tag_117:\n        /* \"#utility.yul\":5532:5543   */\n      0x00\n        /* \"#utility.yul\":5569:5572   */\n      dup2\n        /* \"#utility.yul\":5554:5572   */\n      swap1\n      pop\n        /* \"#utility.yul\":5431:5578   */\n      swap3\n      swap2\n      pop\n      pop\n      jump\t// out\n        /* \"#utility.yul\":5584:5698   */\n    tag_118:\n      pop\n      jump\t// out\n        /* \"#utility.yul\":5704:6102   */\n    tag_119:\n        /* \"#utility.yul\":5863:5866   */\n      0x00\n        /* \"#utility.yul\":5884:5967   */\n      tag_190\n        /* \"#utility.yul\":5965:5966   */\n      0x00\n        /* \"#utility.yul\":5960:5963   */\n      dup4\n        /* \"#utility.yul\":5884:5967   */\n      tag_117\n      jump\t// in\n    tag_190:\n        /* \"#utility.yul\":5877:5967   */\n      swap2\n      pop\n        /* \"#utility.yul\":5976:6069   */\n      tag_191\n        /* \"#utility.yul\":6065:6068   */\n      dup3\n        /* \"#utility.yul\":5976:6069   */\n      tag_118\n      jump\t// in\n    tag_191:\n        /* \"#utility.yul\":6094:6095   */\n      0x00\n        /* \"#utility.yul\":6089:6092   */\n      dup3\n        /* \"#utility.yul\":6085:6096   */\n      add\n        /* \"#utility.yul\":6078:6096   */\n      swap1\n      pop\n        /* \"#utility.yul\":5704:6102   */\n      swap2\n      swap1\n      pop\n      jump\t// out\n        /* \"#utility.yul\":6108:6487   */\n    tag_61:\n        /* \"#utility.yul\":6292:6295   */\n      0x00\n        /* \"#utility.yul\":6314:6461   */\n      tag_193\n        /* \"#utility.yul\":6457:6460   */\n      dup3\n        /* \"#utility.yul\":6314:6461   */\n      tag_119\n      jump\t// in\n    tag_193:\n        /* \"#utility.yul\":6307:6461   */\n      swap2\n      pop\n        /* \"#utility.yul\":6478:6481   */\n      dup2\n        /* \"#utility.yul\":6471:6481   */\n      swap1\n      pop\n        /* \"#utility.yul\":6108:6487   */\n      swap2\n      swap1\n      pop\n      jump\t// out\n        /* \"#utility.yul\":6493:6655   */\n    tag_120:\n        /* \"#utility.yul\":6633:6647   */\n      0x2063616c6c206661696c65640000000000000000000000000000000000000000\n        /* \"#utility.yul\":6629:6630   */\n      0x00\n        /* \"#utility.yul\":6621:6627   */\n      dup3\n        /* \"#utility.yul\":6617:6631   */\n      add\n        /* \"#utility.yul\":6610:6648   */\n      mstore\n        /* \"#utility.yul\":6493:6655   */\n      pop\n      jump\t// out\n        /* \"#utility.yul\":6661:7027   */\n    tag_121:\n        /* \"#utility.yul\":6803:6806   */\n      0x00\n        /* \"#utility.yul\":6824:6891   */\n      tag_196\n        /* \"#utility.yul\":6888:6890   */\n      0x0c\n        /* \"#utility.yul\":6883:6886   */\n      dup4\n        /* \"#utility.yul\":6824:6891   */\n      tag_111\n      jump\t// in\n    tag_196:\n        /* \"#utility.yul\":6817:6891   */\n      swap2\n      pop\n        /* \"#utility.yul\":6900:6993   */\n      tag_197\n        /* \"#utility.yul\":6989:6992   */\n      dup3\n        /* \"#utility.yul\":6900:6993   */\n      tag_120\n      jump\t// in\n    tag_197:\n        /* \"#utility.yul\":7018:7020   */\n      0x20\n        /* \"#utility.yul\":7013:7016   */\n      dup3\n        /* \"#utility.yul\":7009:7021   */\n      add\n        /* \"#utility.yul\":7002:7021   */\n      swap1\n      pop\n        /* \"#utility.yul\":6661:7027   */\n      swap2\n      swap1\n      pop\n      jump\t// out\n        /* \"#utility.yul\":7033:7452   */\n    tag_67:\n        /* \"#utility.yul\":7199:7203   */\n      0x00\n        /* \"#utility.yul\":7237:7239   */\n      0x20\n        /* \"#utility.yul\":7226:7235   */\n      dup3\n        /* \"#utility.yul\":7222:7240   */\n      add\n        /* \"#utility.yul\":7214:7240   */\n      swap1\n      pop\n        /* \"#utility.yul\":7286:7295   */\n      dup2\n        /* \"#utility.yul\":7280:7284   */\n      dup2\n        /* \"#utility.yul\":7276:7296   */\n      sub\n        /* \"#utility.yul\":7272:7273   */\n      0x00\n        /* \"#utility.yul\":7261:7270   */\n      dup4\n        /* \"#utility.yul\":7257:7274   */\n      add\n        /* \"#utility.yul\":7250:7297   */\n      mstore\n        /* \"#utility.yul\":7314:7445   */\n      tag_199\n        /* \"#utility.yul\":7440:7444   */\n      dup2\n        /* \"#utility.yul\":7314:7445   */\n      tag_121\n      jump\t// in\n    tag_199:\n        /* \"#utility.yul\":7306:7445   */\n      swap1\n      pop\n        /* \"#utility.yul\":7033:7452   */\n      swap2\n      swap1\n      pop\n      jump\t// out\n        /* \"#utility.yul\":7458:7630   */\n    tag_122:\n        /* \"#utility.yul\":7598:7622   */\n      0x6469646e27742073656e6420656e6f7567682045544800000000000000000000\n        /* \"#utility.yul\":7594:7595   */\n      0x00\n        /* \"#utility.yul\":7586:7592   */\n      dup3\n        /* \"#utility.yul\":7582:7596   */\n      add\n        /* \"#utility.yul\":7575:7623   */\n      mstore\n        /* \"#utility.yul\":7458:7630   */\n      pop\n      jump\t// out\n        /* \"#utility.yul\":7636:8002   */\n    tag_123:\n        /* \"#utility.yul\":7778:7781   */\n      0x00\n        /* \"#utility.yul\":7799:7866   */\n      tag_202\n        /* \"#utility.yul\":7863:7865   */\n      0x16\n        /* \"#utility.yul\":7858:7861   */\n      dup4\n        /* \"#utility.yul\":7799:7866   */\n      tag_111\n      jump\t// in\n    tag_202:\n        /* \"#utility.yul\":7792:7866   */\n      swap2\n      pop\n        /* \"#utility.yul\":7875:7968   */\n      tag_203\n        /* \"#utility.yul\":7964:7967   */\n      dup3\n        /* \"#utility.yul\":7875:7968   */\n      tag_122\n      jump\t// in\n    tag_203:\n        /* \"#utility.yul\":7993:7995   */\n      0x20\n        /* \"#utility.yul\":7988:7991   */\n      dup3\n        /* \"#utility.yul\":7984:7996   */\n      add\n        /* \"#utility.yul\":7977:7996   */\n      swap1\n      pop\n        /* \"#utility.yul\":7636:8002   */\n      swap2\n      swap1\n      pop\n      jump\t// out\n        /* \"#utility.yul\":8008:8427   */\n    tag_73:\n        /* \"#utility.yul\":8174:8178   */\n      0x00\n        /* \"#utility.yul\":8212:8214   */\n      0x20\n        /* \"#utility.yul\":8201:8210   */\n      dup3\n        /* \"#utility.yul\":8197:8215   */\n      add\n        /* \"#utility.yul\":8189:8215   */\n      swap1\n      pop\n        /* \"#utility.yul\":8261:8270   */\n      dup2\n        /* \"#utility.yul\":8255:8259   */\n      dup2\n        /* \"#utility.yul\":8251:8271   */\n      sub\n        /* \"#utility.yul\":8247:8248   */\n      0x00\n        /* \"#utility.yul\":8236:8245   */\n      dup4\n        /* \"#utility.yul\":8232:8249   */\n      add\n        /* \"#utility.yul\":8225:8272   */\n      mstore\n        /* \"#utility.yul\":8289:8420   */\n      tag_205\n        /* \"#utility.yul\":8415:8419   */\n      dup2\n        /* \"#utility.yul\":8289:8420   */\n      tag_123\n      jump\t// in\n    tag_205:\n        /* \"#utility.yul\":8281:8420   */\n      swap1\n      pop\n        /* \"#utility.yul\":8008:8427   */\n      swap2\n      swap1\n      pop\n      jump\t// out\n        /* \"#utility.yul\":8433:8843   */\n    tag_82:\n        /* \"#utility.yul\":8473:8480   */\n      0x00\n        /* \"#utility.yul\":8496:8516   */\n      tag_207\n        /* \"#utility.yul\":8514:8515   */\n      dup3\n        /* \"#utility.yul\":8496:8516   */\n      tag_99\n      jump\t// in\n    tag_207:\n        /* \"#utility.yul\":8491:8516   */\n      swap2\n      pop\n        /* \"#utility.yul\":8530:8550   */\n      tag_208\n        /* \"#utility.yul\":8548:8549   */\n      dup4\n        /* \"#utility.yul\":8530:8550   */\n      tag_99\n      jump\t// in\n    tag_208:\n        /* \"#utility.yul\":8525:8550   */\n      swap3\n      pop\n        /* \"#utility.yul\":8585:8586   */\n      dup3\n        /* \"#utility.yul\":8582:8583   */\n      dup3\n        /* \"#utility.yul\":8578:8587   */\n      mul\n        /* \"#utility.yul\":8607:8637   */\n      tag_209\n        /* \"#utility.yul\":8625:8636   */\n      dup2\n        /* \"#utility.yul\":8607:8637   */\n      tag_99\n      jump\t// in\n    tag_209:\n        /* \"#utility.yul\":8596:8637   */\n      swap2\n      pop\n        /* \"#utility.yul\":8786:8787   */\n      dup3\n        /* \"#utility.yul\":8777:8784   */\n      dup3\n        /* \"#utility.yul\":8773:8788   */\n      div\n        /* \"#utility.yul\":8770:8771   */\n      dup5\n        /* \"#utility.yul\":8767:8789   */\n      eq\n        /* \"#utility.yul\":8747:8748   */\n      dup4\n        /* \"#utility.yul\":8740:8749   */\n      iszero\n        /* \"#utility.yul\":8720:8803   */\n      or\n        /* \"#utility.yul\":8697:8836   */\n      tag_210\n      jumpi\n        /* \"#utility.yul\":8816:8834   */\n      tag_211\n      tag_114\n      jump\t// in\n    tag_211:\n        /* \"#utility.yul\":8697:8836   */\n    tag_210:\n        /* \"#utility.yul\":8481:8843   */\n      pop\n        /* \"#utility.yul\":8433:8843   */\n      swap3\n      swap2\n      pop\n      pop\n      jump\t// out\n        /* \"#utility.yul\":8849:9029   */\n    tag_124:\n        /* \"#utility.yul\":8897:8974   */\n      0x4e487b7100000000000000000000000000000000000000000000000000000000\n        /* \"#utility.yul\":8894:8895   */\n      0x00\n        /* \"#utility.yul\":8887:8975   */\n      mstore\n        /* \"#utility.yul\":8994:8998   */\n      0x12\n        /* \"#utility.yul\":8991:8992   */\n      0x04\n        /* \"#utility.yul\":8984:8999   */\n      mstore\n        /* \"#utility.yul\":9018:9022   */\n      0x24\n        /* \"#utility.yul\":9015:9016   */\n      0x00\n        /* \"#utility.yul\":9008:9023   */\n      revert\n        /* \"#utility.yul\":9035:9220   */\n    tag_84:\n        /* \"#utility.yul\":9075:9076   */\n      0x00\n        /* \"#utility.yul\":9092:9112   */\n      tag_214\n        /* \"#utility.yul\":9110:9111   */\n      dup3\n        /* \"#utility.yul\":9092:9112   */\n      tag_99\n      jump\t// in\n    tag_214:\n        /* \"#utility.yul\":9087:9112   */\n      swap2\n      pop\n        /* \"#utility.yul\":9126:9146   */\n      tag_215\n        /* \"#utility.yul\":9144:9145   */\n      dup4\n        /* \"#utility.yul\":9126:9146   */\n      tag_99\n      jump\t// in\n    tag_215:\n        /* \"#utility.yul\":9121:9146   */\n      swap3\n      pop\n        /* \"#utility.yul\":9165:9166   */\n      dup3\n        /* \"#utility.yul\":9155:9190   */\n      tag_216\n      jumpi\n        /* \"#utility.yul\":9170:9188   */\n      tag_217\n      tag_124\n      jump\t// in\n    tag_217:\n        /* \"#utility.yul\":9155:9190   */\n    tag_216:\n        /* \"#utility.yul\":9212:9213   */\n      dup3\n        /* \"#utility.yul\":9209:9210   */\n      dup3\n        /* \"#utility.yul\":9205:9214   */\n      div\n        /* \"#utility.yul\":9200:9214   */\n      swap1\n      pop\n        /* \"#utility.yul\":9035:9220   */\n      swap3\n      swap2\n      pop\n      pop\n      jump\t// out\n        /* \"#utility.yul\":9226:9331   */\n    tag_125:\n        /* \"#utility.yul\":9262:9269   */\n      0x00\n        /* \"#utility.yul\":9302:9324   */\n      0xffffffffffffffffffff\n        /* \"#utility.yul\":9295:9300   */\n      dup3\n        /* \"#utility.yul\":9291:9325   */\n      and\n        /* \"#utility.yul\":9280:9325   */\n      swap1\n      pop\n        /* \"#utility.yul\":9226:9331   */\n      swap2\n      swap1\n      pop\n      jump\t// out\n        /* \"#utility.yul\":9337:9457   */\n    tag_126:\n        /* \"#utility.yul\":9409:9432   */\n      tag_220\n        /* \"#utility.yul\":9426:9431   */\n      dup2\n        /* \"#utility.yul\":9409:9432   */\n      tag_125\n      jump\t// in\n    tag_220:\n        /* \"#utility.yul\":9402:9407   */\n      dup2\n        /* \"#utility.yul\":9399:9433   */\n      eq\n        /* \"#utility.yul\":9389:9451   */\n      tag_221\n      jumpi\n        /* \"#utility.yul\":9447:9448   */\n      0x00\n        /* \"#utility.yul\":9444:9445   */\n      dup1\n        /* \"#utility.yul\":9437:9449   */\n      revert\n        /* \"#utility.yul\":9389:9451   */\n    tag_221:\n        /* \"#utility.yul\":9337:9457   */\n      pop\n      jump\t// out\n        /* \"#utility.yul\":9463:9604   */\n    tag_127:\n        /* \"#utility.yul\":9519:9524   */\n      0x00\n        /* \"#utility.yul\":9550:9556   */\n      dup2\n        /* \"#utility.yul\":9544:9557   */\n      mload\n        /* \"#utility.yul\":9535:9557   */\n      swap1\n      pop\n        /* \"#utility.yul\":9566:9598   */\n      tag_223\n        /* \"#utility.yul\":9592:9597   */\n      dup2\n        /* \"#utility.yul\":9566:9598   */\n      tag_126\n      jump\t// in\n    tag_223:\n        /* \"#utility.yul\":9463:9604   */\n      swap3\n      swap2\n      pop\n      pop\n      jump\t// out\n        /* \"#utility.yul\":9610:9686   */\n    tag_128:\n        /* \"#utility.yul\":9646:9653   */\n      0x00\n        /* \"#utility.yul\":9675:9680   */\n      dup2\n        /* \"#utility.yul\":9664:9680   */\n      swap1\n      pop\n        /* \"#utility.yul\":9610:9686   */\n      swap2\n      swap1\n      pop\n      jump\t// out\n        /* \"#utility.yul\":9692:9812   */\n    tag_129:\n        /* \"#utility.yul\":9764:9787   */\n      tag_226\n        /* \"#utility.yul\":9781:9786   */\n      dup2\n        /* \"#utility.yul\":9764:9787   */\n      tag_128\n      jump\t// in\n    tag_226:\n        /* \"#utility.yul\":9757:9762   */\n      dup2\n        /* \"#utility.yul\":9754:9788   */\n      eq\n        /* \"#utility.yul\":9744:9806   */\n      tag_227\n      jumpi\n        /* \"#utility.yul\":9802:9803   */\n      0x00\n        /* \"#utility.yul\":9799:9800   */\n      dup1\n        /* \"#utility.yul\":9792:9804   */\n      revert\n        /* \"#utility.yul\":9744:9806   */\n    tag_227:\n        /* \"#utility.yul\":9692:9812   */\n      pop\n      jump\t// out\n        /* \"#utility.yul\":9818:9959   */\n    tag_130:\n        /* \"#utility.yul\":9874:9879   */\n      0x00\n        /* \"#utility.yul\":9905:9911   */\n      dup2\n        /* \"#utility.yul\":9899:9912   */\n      mload\n        /* \"#utility.yul\":9890:9912   */\n      swap1\n      pop\n        /* \"#utility.yul\":9921:9953   */\n      tag_229\n        /* \"#utility.yul\":9947:9952   */\n      dup2\n        /* \"#utility.yul\":9921:9953   */\n      tag_129\n      jump\t// in\n    tag_229:\n        /* \"#utility.yul\":9818:9959   */\n      swap3\n      swap2\n      pop\n      pop\n      jump\t// out\n        /* \"#utility.yul\":9965:10108   */\n    tag_131:\n        /* \"#utility.yul\":10022:10027   */\n      0x00\n        /* \"#utility.yul\":10053:10059   */\n      dup2\n        /* \"#utility.yul\":10047:10060   */\n      mload\n        /* \"#utility.yul\":10038:10060   */\n      swap1\n      pop\n        /* \"#utility.yul\":10069:10102   */\n      tag_231\n        /* \"#utility.yul\":10096:10101   */\n      dup2\n        /* \"#utility.yul\":10069:10102   */\n      tag_109\n      jump\t// in\n    tag_231:\n        /* \"#utility.yul\":9965:10108   */\n      swap3\n      swap2\n      pop\n      pop\n      jump\t// out\n        /* \"#utility.yul\":10114:11085   */\n    tag_89:\n        /* \"#utility.yul\":10217:10223   */\n      0x00\n        /* \"#utility.yul\":10225:10231   */\n      dup1\n        /* \"#utility.yul\":10233:10239   */\n      0x00\n        /* \"#utility.yul\":10241:10247   */\n      dup1\n        /* \"#utility.yul\":10249:10255   */\n      0x00\n        /* \"#utility.yul\":10298:10301   */\n      0xa0\n        /* \"#utility.yul\":10286:10295   */\n      dup7\n        /* \"#utility.yul\":10277:10284   */\n      dup9\n        /* \"#utility.yul\":10273:10296   */\n      sub\n        /* \"#utility.yul\":10269:10302   */\n      slt\n        /* \"#utility.yul\":10266:10386   */\n      iszero\n      tag_233\n      jumpi\n        /* \"#utility.yul\":10305:10384   */\n      tag_234\n      tag_102\n      jump\t// in\n    tag_234:\n        /* \"#utility.yul\":10266:10386   */\n    tag_233:\n        /* \"#utility.yul\":10425:10426   */\n      0x00\n        /* \"#utility.yul\":10450:10513   */\n      tag_235\n        /* \"#utility.yul\":10505:10512   */\n      dup9\n        /* \"#utility.yul\":10496:10502   */\n      dup3\n        /* \"#utility.yul\":10485:10494   */\n      dup10\n        /* \"#utility.yul\":10481:10503   */\n      add\n        /* \"#utility.yul\":10450:10513   */\n      tag_127\n      jump\t// in\n    tag_235:\n        /* \"#utility.yul\":10440:10513   */\n      swap6\n      pop\n        /* \"#utility.yul\":10396:10523   */\n      pop\n        /* \"#utility.yul\":10562:10564   */\n      0x20\n        /* \"#utility.yul\":10588:10651   */\n      tag_236\n        /* \"#utility.yul\":10643:10650   */\n      dup9\n        /* \"#utility.yul\":10634:10640   */\n      dup3\n        /* \"#utility.yul\":10623:10632   */\n      dup10\n        /* \"#utility.yul\":10619:10641   */\n      add\n        /* \"#utility.yul\":10588:10651   */\n      tag_130\n      jump\t// in\n    tag_236:\n        /* \"#utility.yul\":10578:10651   */\n      swap5\n      pop\n        /* \"#utility.yul\":10533:10661   */\n      pop\n        /* \"#utility.yul\":10700:10702   */\n      0x40\n        /* \"#utility.yul\":10726:10790   */\n      tag_237\n        /* \"#utility.yul\":10782:10789   */\n      dup9\n        /* \"#utility.yul\":10773:10779   */\n      dup3\n        /* \"#utility.yul\":10762:10771   */\n      dup10\n        /* \"#utility.yul\":10758:10780   */\n      add\n        /* \"#utility.yul\":10726:10790   */\n      tag_131\n      jump\t// in\n    tag_237:\n        /* \"#utility.yul\":10716:10790   */\n      swap4\n      pop\n        /* \"#utility.yul\":10671:10800   */\n      pop\n        /* \"#utility.yul\":10839:10841   */\n      0x60\n        /* \"#utility.yul\":10865:10929   */\n      tag_238\n        /* \"#utility.yul\":10921:10928   */\n      dup9\n        /* \"#utility.yul\":10912:10918   */\n      dup3\n        /* \"#utility.yul\":10901:10910   */\n      dup10\n        /* \"#utility.yul\":10897:10919   */\n      add\n        /* \"#utility.yul\":10865:10929   */\n      tag_131\n      jump\t// in\n    tag_238:\n        /* \"#utility.yul\":10855:10929   */\n      swap3\n      pop\n        /* \"#utility.yul\":10810:10939   */\n      pop\n        /* \"#utility.yul\":10978:10981   */\n      0x80\n        /* \"#utility.yul\":11005:11068   */\n      tag_239\n        /* \"#utility.yul\":11060:11067   */\n      dup9\n        /* \"#utility.yul\":11051:11057   */\n      dup3\n        /* \"#utility.yul\":11040:11049   */\n      dup10\n        /* \"#utility.yul\":11036:11058   */\n      add\n        /* \"#utility.yul\":11005:11068   */\n      tag_127\n      jump\t// in\n    tag_239:\n        /* \"#utility.yul\":10995:11068   */\n      swap2\n      pop\n        /* \"#utility.yul\":10949:11078   */\n      pop\n        /* \"#utility.yul\":10114:11085   */\n      swap3\n      swap6\n      pop\n      swap3\n      swap6\n      swap1\n      swap4\n      pop\n      jump\t// out\n        /* \"#utility.yul\":11091:11647   */\n    tag_91:\n        /* \"#utility.yul\":11130:11137   */\n      0x00\n        /* \"#utility.yul\":11153:11172   */\n      tag_241\n        /* \"#utility.yul\":11170:11171   */\n      dup3\n        /* \"#utility.yul\":11153:11172   */\n      tag_128\n      jump\t// in\n    tag_241:\n        /* \"#utility.yul\":11148:11172   */\n      swap2\n      pop\n        /* \"#utility.yul\":11186:11205   */\n      tag_242\n        /* \"#utility.yul\":11203:11204   */\n      dup4\n        /* \"#utility.yul\":11186:11205   */\n      tag_128\n      jump\t// in\n    tag_242:\n        /* \"#utility.yul\":11181:11205   */\n      swap3\n      pop\n        /* \"#utility.yul\":11240:11241   */\n      dup3\n        /* \"#utility.yul\":11237:11238   */\n      dup3\n        /* \"#utility.yul\":11233:11242   */\n      mul\n        /* \"#utility.yul\":11262:11291   */\n      tag_243\n        /* \"#utility.yul\":11279:11290   */\n      dup2\n        /* \"#utility.yul\":11262:11291   */\n      tag_128\n      jump\t// in\n    tag_243:\n        /* \"#utility.yul\":11251:11291   */\n      swap2\n      pop\n        /* \"#utility.yul\":11349:11415   */\n      0x8000000000000000000000000000000000000000000000000000000000000000\n        /* \"#utility.yul\":11346:11347   */\n      dup5\n        /* \"#utility.yul\":11343:11416   */\n      eq\n        /* \"#utility.yul\":11339:11340   */\n      0x00\n        /* \"#utility.yul\":11336:11337   */\n      dup5\n        /* \"#utility.yul\":11332:11341   */\n      slt\n        /* \"#utility.yul\":11328:11417   */\n      and\n        /* \"#utility.yul\":11325:11440   */\n      iszero\n      tag_244\n      jumpi\n        /* \"#utility.yul\":11420:11438   */\n      tag_245\n      tag_114\n      jump\t// in\n    tag_245:\n        /* \"#utility.yul\":11325:11440   */\n    tag_244:\n        /* \"#utility.yul\":11590:11591   */\n      dup3\n        /* \"#utility.yul\":11581:11588   */\n      dup3\n        /* \"#utility.yul\":11576:11592   */\n      sdiv\n        /* \"#utility.yul\":11573:11574   */\n      dup5\n        /* \"#utility.yul\":11570:11593   */\n      eq\n        /* \"#utility.yul\":11550:11551   */\n      dup4\n        /* \"#utility.yul\":11543:11552   */\n      iszero\n        /* \"#utility.yul\":11523:11607   */\n      or\n        /* \"#utility.yul\":11500:11640   */\n      tag_246\n      jumpi\n        /* \"#utility.yul\":11620:11638   */\n      tag_247\n      tag_114\n      jump\t// in\n    tag_247:\n        /* \"#utility.yul\":11500:11640   */\n    tag_246:\n        /* \"#utility.yul\":11138:11647   */\n      pop\n        /* \"#utility.yul\":11091:11647   */\n      swap3\n      swap2\n      pop\n      pop\n      jump\t// out\n\n    auxdata: 0xa2646970667358221220377fbacbcc4afd1ee972e59e304ae4c01bf55fbfcbaea22db9017b77711fc2ab64736f6c63430008120033\n}\n",
				"bytecode": {
					"linkReferences": {},
					"object": "6080604052674563918244f4000060005534801561001c57600080fd5b5033600360006101000a81548173ffffffffffffffffffffffffffffffffffffffff021916908373ffffffffffffffffffffffffffffffffffffffff160217905550610dd58061006d6000396000f3fe6080604052600436106100555760003560e01c80630848e25a1461005a5780633ccfd60b146100855780633e47d6f31461009c5780638da5cb5b146100d9578063b60d428814610104578063dc0d3dff1461010e575b600080fd5b34801561006657600080fd5b5061006f61014b565b60405161007c9190610787565b60405180910390f35b34801561009157600080fd5b5061009a610151565b005b3480156100a857600080fd5b506100c360048036038101906100be9190610805565b61045f565b6040516100d09190610787565b60405180910390f35b3480156100e557600080fd5b506100ee610477565b6040516100fb9190610841565b60405180910390f35b61010c61049d565b005b34801561011a57600080fd5b5061013560048036038101906101309190610888565b6105a5565b6040516101429190610841565b60405180910390f35b60005481565b600360009054906101000a900473ffffffffffffffffffffffffffffffffffffffff1673ffffffffffffffffffffffffffffffffffffffff163373ffffffffffffffffffffffffffffffffffffffff16146101e1576040517f08c379a00000000000000000000000000000000000000000000000000000000081526004016101d890610912565b60405180910390fd5b60005b60018054905081101561028e5760006001828154811061020757610206610932565b5b9060005260206000200160009054906101000a900473ffffffffffffffffffffffffffffffffffffffff1690506000600260008373ffffffffffffffffffffffffffffffffffffffff1673ffffffffffffffffffffffffffffffffffffffff16815260200190815260200160002081905550506001816102879190610990565b90506101e4565b50600067ffffffffffffffff8111156102aa576102a96109c4565b5b6040519080825280602002602001820160405280156102d85781602001602082028036833780820191505090505b50600190805190602001906102ee9291906106c7565b503373ffffffffffffffffffffffffffffffffffffffff166108fc479081150290604051600060405180830381858888f19350505050158015610335573d6000803e3d6000fd5b5060003373ffffffffffffffffffffffffffffffffffffffff166108fc479081150290604051600060405180830381858888f193505050509050806103af576040517f08c379a00000000000000000000000000000000000000000000000000000000081526004016103a690610a3f565b60405180910390fd5b60003373ffffffffffffffffffffffffffffffffffffffff16476040516103d590610a90565b60006040518083038185875af1925050503d8060008114610412576040519150601f19603f3d011682016040523d82523d6000602084013e610417565b606091505b505090508061045b576040517f08c379a000000000000000000000000000000000000000000000000000000000815260040161045290610af1565b60405180910390fd5b5050565b60026020528060005260406000206000915090505481565b600360009054906101000a900473ffffffffffffffffffffffffffffffffffffffff1681565b6000546104a9346105e4565b10156104ea576040517f08c379a00000000000000000000000000000000000000000000000000000000081526004016104e190610b5d565b60405180910390fd5b6001339080600181540180825580915050600190039060005260206000200160009091909190916101000a81548173ffffffffffffffffffffffffffffffffffffffff021916908373ffffffffffffffffffffffffffffffffffffffff16021790555034600260003373ffffffffffffffffffffffffffffffffffffffff1673ffffffffffffffffffffffffffffffffffffffff168152602001908152602001600020600082825461059c9190610990565b92505081905550565b600181815481106105b557600080fd5b906000526020600020016000915054906101000a900473ffffffffffffffffffffffffffffffffffffffff1681565b6000806105ef61061e565b90506000670de0b6b3a764000084836106089190610b7d565b6106129190610bee565b90508092505050919050565b600080731a81afb8146aeffcfc5e50e8479e826e7d55b910905060008173ffffffffffffffffffffffffffffffffffffffff1663feaf968c6040518163ffffffff1660e01b815260040160a060405180830381865afa158015610685573d6000803e3d6000fd5b505050506040513d601f19601f820116820180604052508101906106a99190610cac565b5050509150506402540be400816106c09190610d27565b9250505090565b828054828255906000526020600020908101928215610740579160200282015b8281111561073f5782518260006101000a81548173ffffffffffffffffffffffffffffffffffffffff021916908373ffffffffffffffffffffffffffffffffffffffff160217905550916020019190600101906106e7565b5b50905061074d9190610751565b5090565b5b8082111561076a576000816000905550600101610752565b5090565b6000819050919050565b6107818161076e565b82525050565b600060208201905061079c6000830184610778565b92915050565b600080fd5b600073ffffffffffffffffffffffffffffffffffffffff82169050919050565b60006107d2826107a7565b9050919050565b6107e2816107c7565b81146107ed57600080fd5b50565b6000813590506107ff816107d9565b92915050565b60006020828403121561081b5761081a6107a2565b5b6000610829848285016107f0565b91505092915050565b61083b816107c7565b82525050565b60006020820190506108566000830184610832565b92915050565b6108658161076e565b811461087057600080fd5b50565b6000813590506108828161085c565b92915050565b60006020828403121561089e5761089d6107a2565b5b60006108ac84828501610873565b91505092915050565b600082825260208201905092915050565b7f4d757374206265206f776e657221000000000000000000000000000000000000600082015250565b60006108fc600e836108b5565b9150610907826108c6565b602082019050919050565b6000602082019050818103600083015261092b816108ef565b9050919050565b7f4e487b7100000000000000000000000000000000000000000000000000000000600052603260045260246000fd5b7f4e487b7100000000000000000000000000000000000000000000000000000000600052601160045260246000fd5b600061099b8261076e565b91506109a68361076e565b92508282019050808211156109be576109bd610961565b5b92915050565b7f4e487b7100000000000000000000000000000000000000000000000000000000600052604160045260246000fd5b7f53656e64206661696c6500000000000000000000000000000000000000000000600082015250565b6000610a29600a836108b5565b9150610a34826109f3565b602082019050919050565b60006020820190508181036000830152610a5881610a1c565b9050919050565b600081905092915050565b50565b6000610a7a600083610a5f565b9150610a8582610a6a565b600082019050919050565b6000610a9b82610a6d565b9150819050919050565b7f2063616c6c206661696c65640000000000000000000000000000000000000000600082015250565b6000610adb600c836108b5565b9150610ae682610aa5565b602082019050919050565b60006020820190508181036000830152610b0a81610ace565b9050919050565b7f6469646e27742073656e6420656e6f7567682045544800000000000000000000600082015250565b6000610b476016836108b5565b9150610b5282610b11565b602082019050919050565b60006020820190508181036000830152610b7681610b3a565b9050919050565b6000610b888261076e565b9150610b938361076e565b9250828202610ba18161076e565b91508282048414831517610bb857610bb7610961565b5b5092915050565b7f4e487b7100000000000000000000000000000000000000000000000000000000600052601260045260246000fd5b6000610bf98261076e565b9150610c048361076e565b925082610c1457610c13610bbf565b5b828204905092915050565b600069ffffffffffffffffffff82169050919050565b610c3e81610c1f565b8114610c4957600080fd5b50565b600081519050610c5b81610c35565b92915050565b6000819050919050565b610c7481610c61565b8114610c7f57600080fd5b50565b600081519050610c9181610c6b565b92915050565b600081519050610ca68161085c565b92915050565b600080600080600060a08688031215610cc857610cc76107a2565b5b6000610cd688828901610c4c565b9550506020610ce788828901610c82565b9450506040610cf888828901610c97565b9350506060610d0988828901610c97565b9250506080610d1a88828901610c4c565b9150509295509295909350565b6000610d3282610c61565b9150610d3d83610c61565b9250828202610d4b81610c61565b91507f80000000000000000000000000000000000000000000000000000000000000008414600084121615610d8357610d82610961565b5b8282058414831517610d9857610d97610961565b5b509291505056fea2646970667358221220377fbacbcc4afd1ee972e59e304ae4c01bf55fbfcbaea22db9017b77711fc2ab64736f6c63430008120033",
					"opcodes": "PUSH1 0x80 PUSH1 0x40 MSTORE PUSH8 0x4563918244F40000 PUSH1 0x0 SSTORE CALLVALUE DUP1 ISZERO PUSH2 0x1C JUMPI PUSH1 0x0 DUP1 REVERT JUMPDEST POP CALLER PUSH1 0x3 PUSH1 0x0 PUSH2 0x100 EXP DUP2 SLOAD DUP2 PUSH20 0xFFFFFFFFFFFFFFFFFFFFFFFFFFFFFFFFFFFFFFFF MUL NOT AND SWAP1 DUP4 PUSH20 0xFFFFFFFFFFFFFFFFFFFFFFFFFFFFFFFFFFFFFFFF AND MUL OR SWAP1 SSTORE POP PUSH2 0xDD5 DUP1 PUSH2 0x6D PUSH1 0x0 CODECOPY PUSH1 0x0 RETURN INVALID PUSH1 0x80 PUSH1 0x40 MSTORE PUSH1 0x4 CALLDATASIZE LT PUSH2 0x55 JUMPI PUSH1 0x0 CALLDATALOAD PUSH1 0xE0 SHR DUP1 PUSH4 0x848E25A EQ PUSH2 0x5A JUMPI DUP1 PUSH4 0x3CCFD60B EQ PUSH2 0x85 JUMPI DUP1 PUSH4 0x3E47D6F3 EQ PUSH2 0x9C JUMPI DUP1 PUSH4 0x8DA5CB5B EQ PUSH2 0xD9 JUMPI DUP1 PUSH4 0xB60D4288 EQ PUSH2 0x104 JUMPI DUP1 PUSH4 0xDC0D3DFF EQ PUSH2 0x10E JUMPI JUMPDEST PUSH1 0x0 DUP1 REVERT JUMPDEST CALLVALUE DUP1 ISZERO PUSH2 0x66 JUMPI PUSH1 0x0 DUP1 REVERT JUMPDEST POP PUSH2 0x6F PUSH2 0x14B JUMP JUMPDEST PUSH1 0x40 MLOAD PUSH2 0x7C SWAP2 SWAP1 PUSH2 0x787 JUMP JUMPDEST PUSH1 0x40 MLOAD DUP1 SWAP2 SUB SWAP1 RETURN JUMPDEST CALLVALUE DUP1 ISZERO PUSH2 0x91 JUMPI PUSH1 0x0 DUP1 REVERT JUMPDEST POP PUSH2 0x9A PUSH2 0x151 JUMP JUMPDEST STOP JUMPDEST CALLVALUE DUP1 ISZERO PUSH2 0xA8 JUMPI PUSH1 0x0 DUP1 REVERT JUMPDEST POP PUSH2 0xC3 PUSH1 0x4 DUP1 CALLDATASIZE SUB DUP2 ADD SWAP1 PUSH2 0xBE SWAP2 SWAP1 PUSH2 0x805 JUMP JUMPDEST PUSH2 0x45F JUMP JUMPDEST PUSH1 0x40 MLOAD PUSH2 0xD0 SWAP2 SWAP1 PUSH2 0x787 JUMP JUMPDEST PUSH1 0x40 MLOAD DUP1 SWAP2 SUB SWAP1 RETURN JUMPDEST CALLVALUE DUP1 ISZERO PUSH2 0xE5 JUMPI PUSH1 0x0 DUP1 REVERT JUMPDEST POP PUSH2 0xEE PUSH2 0x477 JUMP JUMPDEST PUSH1 0x40 MLOAD PUSH2 0xFB SWAP2 SWAP1 PUSH2 0x841 JUMP JUMPDEST PUSH1 0x40 MLOAD DUP1 SWAP2 SUB SWAP1 RETURN JUMPDEST PUSH2 0x10C PUSH2 0x49D JUMP JUMPDEST STOP JUMPDEST CALLVALUE DUP1 ISZERO PUSH2 0x11A JUMPI PUSH1 0x0 DUP1 REVERT JUMPDEST POP PUSH2 0x135 PUSH1 0x4 DUP1 CALLDATASIZE SUB DUP2 ADD SWAP1 PUSH2 0x130 SWAP2 SWAP1 PUSH2 0x888 JUMP JUMPDEST PUSH2 0x5A5 JUMP JUMPDEST PUSH1 0x40 MLOAD PUSH2 0x142 SWAP2 SWAP1 PUSH2 0x841 JUMP JUMPDEST PUSH1 0x40 MLOAD DUP1 SWAP2 SUB SWAP1 RETURN JUMPDEST PUSH1 0x0 SLOAD DUP2 JUMP JUMPDEST PUSH1 0x3 PUSH1 0x0 SWAP1 SLOAD SWAP1 PUSH2 0x100 EXP SWAP1 DIV PUSH20 0xFFFFFFFFFFFFFFFFFFFFFFFFFFFFFFFFFFFFFFFF AND PUSH20 0xFFFFFFFFFFFFFFFFFFFFFFFFFFFFFFFFFFFFFFFF AND CALLER PUSH20 0xFFFFFFFFFFFFFFFFFFFFFFFFFFFFFFFFFFFFFFFF AND EQ PUSH2 0x1E1 JUMPI PUSH1 0x40 MLOAD PUSH32 0x8C379A000000000000000000000000000000000000000000000000000000000 DUP2 MSTORE PUSH1 0x4 ADD PUSH2 0x1D8 SWAP1 PUSH2 0x912 JUMP JUMPDEST PUSH1 0x40 MLOAD DUP1 SWAP2 SUB SWAP1 REVERT JUMPDEST PUSH1 0x0 JUMPDEST PUSH1 0x1 DUP1 SLOAD SWAP1 POP DUP2 LT ISZERO PUSH2 0x28E JUMPI PUSH1 0x0 PUSH1 0x1 DUP3 DUP2 SLOAD DUP2 LT PUSH2 0x207 JUMPI PUSH2 0x206 PUSH2 0x932 JUMP JUMPDEST JUMPDEST SWAP1 PUSH1 0x0 MSTORE PUSH1 0x20 PUSH1 0x0 KECCAK256 ADD PUSH1 0x0 SWAP1 SLOAD SWAP1 PUSH2 0x100 EXP SWAP1 DIV PUSH20 0xFFFFFFFFFFFFFFFFFFFFFFFFFFFFFFFFFFFFFFFF AND SWAP1 POP PUSH1 0x0 PUSH1 0x2 PUSH1 0x0 DUP4 PUSH20 0xFFFFFFFFFFFFFFFFFFFFFFFFFFFFFFFFFFFFFFFF AND PUSH20 0xFFFFFFFFFFFFFFFFFFFFFFFFFFFFFFFFFFFFFFFF AND DUP2 MSTORE PUSH1 0x20 ADD SWAP1 DUP2 MSTORE PUSH1 0x20 ADD PUSH1 0x0 KECCAK256 DUP2 SWAP1 SSTORE POP POP PUSH1 0x1 DUP2 PUSH2 0x287 SWAP2 SWAP1 PUSH2 0x990 JUMP JUMPDEST SWAP1 POP PUSH2 0x1E4 JUMP JUMPDEST POP PUSH1 0x0 PUSH8 0xFFFFFFFFFFFFFFFF DUP2 GT ISZERO PUSH2 0x2AA JUMPI PUSH2 0x2A9 PUSH2 0x9C4 JUMP JUMPDEST JUMPDEST PUSH1 0x40 MLOAD SWAP1 DUP1 DUP3 MSTORE DUP1 PUSH1 0x20 MUL PUSH1 0x20 ADD DUP3 ADD PUSH1 0x40 MSTORE DUP1 ISZERO PUSH2 0x2D8 JUMPI DUP2 PUSH1 0x20 ADD PUSH1 0x20 DUP3 MUL DUP1 CALLDATASIZE DUP4 CALLDATACOPY DUP1 DUP3 ADD SWAP2 POP POP SWAP1 POP JUMPDEST POP PUSH1 0x1 SWAP1 DUP1 MLOAD SWAP1 PUSH1 0x20 ADD SWAP1 PUSH2 0x2EE SWAP3 SWAP2 SWAP1 PUSH2 0x6C7 JUMP JUMPDEST POP CALLER PUSH20 0xFFFFFFFFFFFFFFFFFFFFFFFFFFFFFFFFFFFFFFFF AND PUSH2 0x8FC SELFBALANCE SWAP1 DUP2 ISZERO MUL SWAP1 PUSH1 0x40 MLOAD PUSH1 0x0 PUSH1 0x40 MLOAD DUP1 DUP4 SUB DUP2 DUP6 DUP9 DUP9 CALL SWAP4 POP POP POP POP ISZERO DUP1 ISZERO PUSH2 0x335 JUMPI RETURNDATASIZE PUSH1 0x0 DUP1 RETURNDATACOPY RETURNDATASIZE PUSH1 0x0 REVERT JUMPDEST POP PUSH1 0x0 CALLER PUSH20 0xFFFFFFFFFFFFFFFFFFFFFFFFFFFFFFFFFFFFFFFF AND PUSH2 0x8FC SELFBALANCE SWAP1 DUP2 ISZERO MUL SWAP1 PUSH1 0x40 MLOAD PUSH1 0x0 PUSH1 0x40 MLOAD DUP1 DUP4 SUB DUP2 DUP6 DUP9 DUP9 CALL SWAP4 POP POP POP POP SWAP1 POP DUP1 PUSH2 0x3AF JUMPI PUSH1 0x40 MLOAD PUSH32 0x8C379A000000000000000000000000000000000000000000000000000000000 DUP2 MSTORE PUSH1 0x4 ADD PUSH2 0x3A6 SWAP1 PUSH2 0xA3F JUMP JUMPDEST PUSH1 0x40 MLOAD DUP1 SWAP2 SUB SWAP1 REVERT JUMPDEST PUSH1 0x0 CALLER PUSH20 0xFFFFFFFFFFFFFFFFFFFFFFFFFFFFFFFFFFFFFFFF AND SELFBALANCE PUSH1 0x40 MLOAD PUSH2 0x3D5 SWAP1 PUSH2 0xA90 JUMP JUMPDEST PUSH1 0x0 PUSH1 0x40 MLOAD DUP1 DUP4 SUB DUP2 DUP6 DUP8 GAS CALL SWAP3 POP POP POP RETURNDATASIZE DUP1 PUSH1 0x0 DUP2 EQ PUSH2 0x412 JUMPI PUSH1 0x40 MLOAD SWAP2 POP PUSH1 0x1F NOT PUSH1 0x3F RETURNDATASIZE ADD AND DUP3 ADD PUSH1 0x40 MSTORE RETURNDATASIZE DUP3 MSTORE RETURNDATASIZE PUSH1 0x0 PUSH1 0x20 DUP5 ADD RETURNDATACOPY PUSH2 0x417 JUMP JUMPDEST PUSH1 0x60 SWAP2 POP JUMPDEST POP POP SWAP1 POP DUP1 PUSH2 0x45B JUMPI PUSH1 0x40 MLOAD PUSH32 0x8C379A000000000000000000000000000000000000000000000000000000000 DUP2 MSTORE PUSH1 0x4 ADD PUSH2 0x452 SWAP1 PUSH2 0xAF1 JUMP JUMPDEST PUSH1 0x40 MLOAD DUP1 SWAP2 SUB SWAP1 REVERT JUMPDEST POP POP JUMP JUMPDEST PUSH1 0x2 PUSH1 0x20 MSTORE DUP1 PUSH1 0x0 MSTORE PUSH1 0x40 PUSH1 0x0 KECCAK256 PUSH1 0x0 SWAP2 POP SWAP1 POP SLOAD DUP2 JUMP JUMPDEST PUSH1 0x3 PUSH1 0x0 SWAP1 SLOAD SWAP1 PUSH2 0x100 EXP SWAP1 DIV PUSH20 0xFFFFFFFFFFFFFFFFFFFFFFFFFFFFFFFFFFFFFFFF AND DUP2 JUMP JUMPDEST PUSH1 0x0 SLOAD PUSH2 0x4A9 CALLVALUE PUSH2 0x5E4 JUMP JUMPDEST LT ISZERO PUSH2 0x4EA JUMPI PUSH1 0x40 MLOAD PUSH32 0x8C379A000000000000000000000000000000000000000000000000000000000 DUP2 MSTORE PUSH1 0x4 ADD PUSH2 0x4E1 SWAP1 PUSH2 0xB5D JUMP JUMPDEST PUSH1 0x40 MLOAD DUP1 SWAP2 SUB SWAP1 REVERT JUMPDEST PUSH1 0x1 CALLER SWAP1 DUP1 PUSH1 0x1 DUP2 SLOAD ADD DUP1 DUP3 SSTORE DUP1 SWAP2 POP POP PUSH1 0x1 SWAP1 SUB SWAP1 PUSH1 0x0 MSTORE PUSH1 0x20 PUSH1 0x0 KECCAK256 ADD PUSH1 0x0 SWAP1 SWAP2 SWAP1 SWAP2 SWAP1 SWAP2 PUSH2 0x100 EXP DUP2 SLOAD DUP2 PUSH20 0xFFFFFFFFFFFFFFFFFFFFFFFFFFFFFFFFFFFFFFFF MUL NOT AND SWAP1 DUP4 PUSH20 0xFFFFFFFFFFFFFFFFFFFFFFFFFFFFFFFFFFFFFFFF AND MUL OR SWAP1 SSTORE POP CALLVALUE PUSH1 0x2 PUSH1 0x0 CALLER PUSH20 0xFFFFFFFFFFFFFFFFFFFFFFFFFFFFFFFFFFFFFFFF AND PUSH20 0xFFFFFFFFFFFFFFFFFFFFFFFFFFFFFFFFFFFFFFFF AND DUP2 MSTORE PUSH1 0x20 ADD SWAP1 DUP2 MSTORE PUSH1 0x20 ADD PUSH1 0x0 KECCAK256 PUSH1 0x0 DUP3 DUP3 SLOAD PUSH2 0x59C SWAP2 SWAP1 PUSH2 0x990 JUMP JUMPDEST SWAP3 POP POP DUP2 SWAP1 SSTORE POP JUMP JUMPDEST PUSH1 0x1 DUP2 DUP2 SLOAD DUP2 LT PUSH2 0x5B5 JUMPI PUSH1 0x0 DUP1 REVERT JUMPDEST SWAP1 PUSH1 0x0 MSTORE PUSH1 0x20 PUSH1 0x0 KECCAK256 ADD PUSH1 0x0 SWAP2 POP SLOAD SWAP1 PUSH2 0x100 EXP SWAP1 DIV PUSH20 0xFFFFFFFFFFFFFFFFFFFFFFFFFFFFFFFFFFFFFFFF AND DUP2 JUMP JUMPDEST PUSH1 0x0 DUP1 PUSH2 0x5EF PUSH2 0x61E JUMP JUMPDEST SWAP1 POP PUSH1 0x0 PUSH8 0xDE0B6B3A7640000 DUP5 DUP4 PUSH2 0x608 SWAP2 SWAP1 PUSH2 0xB7D JUMP JUMPDEST PUSH2 0x612 SWAP2 SWAP1 PUSH2 0xBEE JUMP JUMPDEST SWAP1 POP DUP1 SWAP3 POP POP POP SWAP2 SWAP1 POP JUMP JUMPDEST PUSH1 0x0 DUP1 PUSH20 0x1A81AFB8146AEFFCFC5E50E8479E826E7D55B910 SWAP1 POP PUSH1 0x0 DUP2 PUSH20 0xFFFFFFFFFFFFFFFFFFFFFFFFFFFFFFFFFFFFFFFF AND PUSH4 0xFEAF968C PUSH1 0x40 MLOAD DUP2 PUSH4 0xFFFFFFFF AND PUSH1 0xE0 SHL DUP2 MSTORE PUSH1 0x4 ADD PUSH1 0xA0 PUSH1 0x40 MLOAD DUP1 DUP4 SUB DUP2 DUP7 GAS STATICCALL ISZERO DUP1 ISZERO PUSH2 0x685 JUMPI RETURNDATASIZE PUSH1 0x0 DUP1 RETURNDATACOPY RETURNDATASIZE PUSH1 0x0 REVERT JUMPDEST POP POP POP POP PUSH1 0x40 MLOAD RETURNDATASIZE PUSH1 0x1F NOT PUSH1 0x1F DUP3 ADD AND DUP3 ADD DUP1 PUSH1 0x40 MSTORE POP DUP2 ADD SWAP1 PUSH2 0x6A9 SWAP2 SWAP1 PUSH2 0xCAC JUMP JUMPDEST POP POP POP SWAP2 POP POP PUSH5 0x2540BE400 DUP2 PUSH2 0x6C0 SWAP2 SWAP1 PUSH2 0xD27 JUMP JUMPDEST SWAP3 POP POP POP SWAP1 JUMP JUMPDEST DUP3 DUP1 SLOAD DUP3 DUP3 SSTORE SWAP1 PUSH1 0x0 MSTORE PUSH1 0x20 PUSH1 0x0 KECCAK256 SWAP1 DUP2 ADD SWAP3 DUP3 ISZERO PUSH2 0x740 JUMPI SWAP2 PUSH1 0x20 MUL DUP3 ADD JUMPDEST DUP3 DUP2 GT ISZERO PUSH2 0x73F JUMPI DUP3 MLOAD DUP3 PUSH1 0x0 PUSH2 0x100 EXP DUP2 SLOAD DUP2 PUSH20 0xFFFFFFFFFFFFFFFFFFFFFFFFFFFFFFFFFFFFFFFF MUL NOT AND SWAP1 DUP4 PUSH20 0xFFFFFFFFFFFFFFFFFFFFFFFFFFFFFFFFFFFFFFFF AND MUL OR SWAP1 SSTORE POP SWAP2 PUSH1 0x20 ADD SWAP2 SWAP1 PUSH1 0x1 ADD SWAP1 PUSH2 0x6E7 JUMP JUMPDEST JUMPDEST POP SWAP1 POP PUSH2 0x74D SWAP2 SWAP1 PUSH2 0x751 JUMP JUMPDEST POP SWAP1 JUMP JUMPDEST JUMPDEST DUP1 DUP3 GT ISZERO PUSH2 0x76A JUMPI PUSH1 0x0 DUP2 PUSH1 0x0 SWAP1 SSTORE POP PUSH1 0x1 ADD PUSH2 0x752 JUMP JUMPDEST POP SWAP1 JUMP JUMPDEST PUSH1 0x0 DUP2 SWAP1 POP SWAP2 SWAP1 POP JUMP JUMPDEST PUSH2 0x781 DUP2 PUSH2 0x76E JUMP JUMPDEST DUP3 MSTORE POP POP JUMP JUMPDEST PUSH1 0x0 PUSH1 0x20 DUP3 ADD SWAP1 POP PUSH2 0x79C PUSH1 0x0 DUP4 ADD DUP5 PUSH2 0x778 JUMP JUMPDEST SWAP3 SWAP2 POP POP JUMP JUMPDEST PUSH1 0x0 DUP1 REVERT JUMPDEST PUSH1 0x0 PUSH20 0xFFFFFFFFFFFFFFFFFFFFFFFFFFFFFFFFFFFFFFFF DUP3 AND SWAP1 POP SWAP2 SWAP1 POP JUMP JUMPDEST PUSH1 0x0 PUSH2 0x7D2 DUP3 PUSH2 0x7A7 JUMP JUMPDEST SWAP1 POP SWAP2 SWAP1 POP JUMP JUMPDEST PUSH2 0x7E2 DUP2 PUSH2 0x7C7 JUMP JUMPDEST DUP2 EQ PUSH2 0x7ED JUMPI PUSH1 0x0 DUP1 REVERT JUMPDEST POP JUMP JUMPDEST PUSH1 0x0 DUP2 CALLDATALOAD SWAP1 POP PUSH2 0x7FF DUP2 PUSH2 0x7D9 JUMP JUMPDEST SWAP3 SWAP2 POP POP JUMP JUMPDEST PUSH1 0x0 PUSH1 0x20 DUP3 DUP5 SUB SLT ISZERO PUSH2 0x81B JUMPI PUSH2 0x81A PUSH2 0x7A2 JUMP JUMPDEST JUMPDEST PUSH1 0x0 PUSH2 0x829 DUP5 DUP3 DUP6 ADD PUSH2 0x7F0 JUMP JUMPDEST SWAP2 POP POP SWAP3 SWAP2 POP POP JUMP JUMPDEST PUSH2 0x83B DUP2 PUSH2 0x7C7 JUMP JUMPDEST DUP3 MSTORE POP POP JUMP JUMPDEST PUSH1 0x0 PUSH1 0x20 DUP3 ADD SWAP1 POP PUSH2 0x856 PUSH1 0x0 DUP4 ADD DUP5 PUSH2 0x832 JUMP JUMPDEST SWAP3 SWAP2 POP POP JUMP JUMPDEST PUSH2 0x865 DUP2 PUSH2 0x76E JUMP JUMPDEST DUP2 EQ PUSH2 0x870 JUMPI PUSH1 0x0 DUP1 REVERT JUMPDEST POP JUMP JUMPDEST PUSH1 0x0 DUP2 CALLDATALOAD SWAP1 POP PUSH2 0x882 DUP2 PUSH2 0x85C JUMP JUMPDEST SWAP3 SWAP2 POP POP JUMP JUMPDEST PUSH1 0x0 PUSH1 0x20 DUP3 DUP5 SUB SLT ISZERO PUSH2 0x89E JUMPI PUSH2 0x89D PUSH2 0x7A2 JUMP JUMPDEST JUMPDEST PUSH1 0x0 PUSH2 0x8AC DUP5 DUP3 DUP6 ADD PUSH2 0x873 JUMP JUMPDEST SWAP2 POP POP SWAP3 SWAP2 POP POP JUMP JUMPDEST PUSH1 0x0 DUP3 DUP3 MSTORE PUSH1 0x20 DUP3 ADD SWAP1 POP SWAP3 SWAP2 POP POP JUMP JUMPDEST PUSH32 0x4D757374206265206F776E657221000000000000000000000000000000000000 PUSH1 0x0 DUP3 ADD MSTORE POP JUMP JUMPDEST PUSH1 0x0 PUSH2 0x8FC PUSH1 0xE DUP4 PUSH2 0x8B5 JUMP JUMPDEST SWAP2 POP PUSH2 0x907 DUP3 PUSH2 0x8C6 JUMP JUMPDEST PUSH1 0x20 DUP3 ADD SWAP1 POP SWAP2 SWAP1 POP JUMP JUMPDEST PUSH1 0x0 PUSH1 0x20 DUP3 ADD SWAP1 POP DUP2 DUP2 SUB PUSH1 0x0 DUP4 ADD MSTORE PUSH2 0x92B DUP2 PUSH2 0x8EF JUMP JUMPDEST SWAP1 POP SWAP2 SWAP1 POP JUMP JUMPDEST PUSH32 0x4E487B7100000000000000000000000000000000000000000000000000000000 PUSH1 0x0 MSTORE PUSH1 0x32 PUSH1 0x4 MSTORE PUSH1 0x24 PUSH1 0x0 REVERT JUMPDEST PUSH32 0x4E487B7100000000000000000000000000000000000000000000000000000000 PUSH1 0x0 MSTORE PUSH1 0x11 PUSH1 0x4 MSTORE PUSH1 0x24 PUSH1 0x0 REVERT JUMPDEST PUSH1 0x0 PUSH2 0x99B DUP3 PUSH2 0x76E JUMP JUMPDEST SWAP2 POP PUSH2 0x9A6 DUP4 PUSH2 0x76E JUMP JUMPDEST SWAP3 POP DUP3 DUP3 ADD SWAP1 POP DUP1 DUP3 GT ISZERO PUSH2 0x9BE JUMPI PUSH2 0x9BD PUSH2 0x961 JUMP JUMPDEST JUMPDEST SWAP3 SWAP2 POP POP JUMP JUMPDEST PUSH32 0x4E487B7100000000000000000000000000000000000000000000000000000000 PUSH1 0x0 MSTORE PUSH1 0x41 PUSH1 0x4 MSTORE PUSH1 0x24 PUSH1 0x0 REVERT JUMPDEST PUSH32 0x53656E64206661696C6500000000000000000000000000000000000000000000 PUSH1 0x0 DUP3 ADD MSTORE POP JUMP JUMPDEST PUSH1 0x0 PUSH2 0xA29 PUSH1 0xA DUP4 PUSH2 0x8B5 JUMP JUMPDEST SWAP2 POP PUSH2 0xA34 DUP3 PUSH2 0x9F3 JUMP JUMPDEST PUSH1 0x20 DUP3 ADD SWAP1 POP SWAP2 SWAP1 POP JUMP JUMPDEST PUSH1 0x0 PUSH1 0x20 DUP3 ADD SWAP1 POP DUP2 DUP2 SUB PUSH1 0x0 DUP4 ADD MSTORE PUSH2 0xA58 DUP2 PUSH2 0xA1C JUMP JUMPDEST SWAP1 POP SWAP2 SWAP1 POP JUMP JUMPDEST PUSH1 0x0 DUP2 SWAP1 POP SWAP3 SWAP2 POP POP JUMP JUMPDEST POP JUMP JUMPDEST PUSH1 0x0 PUSH2 0xA7A PUSH1 0x0 DUP4 PUSH2 0xA5F JUMP JUMPDEST SWAP2 POP PUSH2 0xA85 DUP3 PUSH2 0xA6A JUMP JUMPDEST PUSH1 0x0 DUP3 ADD SWAP1 POP SWAP2 SWAP1 POP JUMP JUMPDEST PUSH1 0x0 PUSH2 0xA9B DUP3 PUSH2 0xA6D JUMP JUMPDEST SWAP2 POP DUP2 SWAP1 POP SWAP2 SWAP1 POP JUMP JUMPDEST PUSH32 0x2063616C6C206661696C65640000000000000000000000000000000000000000 PUSH1 0x0 DUP3 ADD MSTORE POP JUMP JUMPDEST PUSH1 0x0 PUSH2 0xADB PUSH1 0xC DUP4 PUSH2 0x8B5 JUMP JUMPDEST SWAP2 POP PUSH2 0xAE6 DUP3 PUSH2 0xAA5 JUMP JUMPDEST PUSH1 0x20 DUP3 ADD SWAP1 POP SWAP2 SWAP1 POP JUMP JUMPDEST PUSH1 0x0 PUSH1 0x20 DUP3 ADD SWAP1 POP DUP2 DUP2 SUB PUSH1 0x0 DUP4 ADD MSTORE PUSH2 0xB0A DUP2 PUSH2 0xACE JUMP JUMPDEST SWAP1 POP SWAP2 SWAP1 POP JUMP JUMPDEST PUSH32 0x6469646E27742073656E6420656E6F7567682045544800000000000000000000 PUSH1 0x0 DUP3 ADD MSTORE POP JUMP JUMPDEST PUSH1 0x0 PUSH2 0xB47 PUSH1 0x16 DUP4 PUSH2 0x8B5 JUMP JUMPDEST SWAP2 POP PUSH2 0xB52 DUP3 PUSH2 0xB11 JUMP JUMPDEST PUSH1 0x20 DUP3 ADD SWAP1 POP SWAP2 SWAP1 POP JUMP JUMPDEST PUSH1 0x0 PUSH1 0x20 DUP3 ADD SWAP1 POP DUP2 DUP2 SUB PUSH1 0x0 DUP4 ADD MSTORE PUSH2 0xB76 DUP2 PUSH2 0xB3A JUMP JUMPDEST SWAP1 POP SWAP2 SWAP1 POP JUMP JUMPDEST PUSH1 0x0 PUSH2 0xB88 DUP3 PUSH2 0x76E JUMP JUMPDEST SWAP2 POP PUSH2 0xB93 DUP4 PUSH2 0x76E JUMP JUMPDEST SWAP3 POP DUP3 DUP3 MUL PUSH2 0xBA1 DUP2 PUSH2 0x76E JUMP JUMPDEST SWAP2 POP DUP3 DUP3 DIV DUP5 EQ DUP4 ISZERO OR PUSH2 0xBB8 JUMPI PUSH2 0xBB7 PUSH2 0x961 JUMP JUMPDEST JUMPDEST POP SWAP3 SWAP2 POP POP JUMP JUMPDEST PUSH32 0x4E487B7100000000000000000000000000000000000000000000000000000000 PUSH1 0x0 MSTORE PUSH1 0x12 PUSH1 0x4 MSTORE PUSH1 0x24 PUSH1 0x0 REVERT JUMPDEST PUSH1 0x0 PUSH2 0xBF9 DUP3 PUSH2 0x76E JUMP JUMPDEST SWAP2 POP PUSH2 0xC04 DUP4 PUSH2 0x76E JUMP JUMPDEST SWAP3 POP DUP3 PUSH2 0xC14 JUMPI PUSH2 0xC13 PUSH2 0xBBF JUMP JUMPDEST JUMPDEST DUP3 DUP3 DIV SWAP1 POP SWAP3 SWAP2 POP POP JUMP JUMPDEST PUSH1 0x0 PUSH10 0xFFFFFFFFFFFFFFFFFFFF DUP3 AND SWAP1 POP SWAP2 SWAP1 POP JUMP JUMPDEST PUSH2 0xC3E DUP2 PUSH2 0xC1F JUMP JUMPDEST DUP2 EQ PUSH2 0xC49 JUMPI PUSH1 0x0 DUP1 REVERT JUMPDEST POP JUMP JUMPDEST PUSH1 0x0 DUP2 MLOAD SWAP1 POP PUSH2 0xC5B DUP2 PUSH2 0xC35 JUMP JUMPDEST SWAP3 SWAP2 POP POP JUMP JUMPDEST PUSH1 0x0 DUP2 SWAP1 POP SWAP2 SWAP1 POP JUMP JUMPDEST PUSH2 0xC74 DUP2 PUSH2 0xC61 JUMP JUMPDEST DUP2 EQ PUSH2 0xC7F JUMPI PUSH1 0x0 DUP1 REVERT JUMPDEST POP JUMP JUMPDEST PUSH1 0x0 DUP2 MLOAD SWAP1 POP PUSH2 0xC91 DUP2 PUSH2 0xC6B JUMP JUMPDEST SWAP3 SWAP2 POP POP JUMP JUMPDEST PUSH1 0x0 DUP2 MLOAD SWAP1 POP PUSH2 0xCA6 DUP2 PUSH2 0x85C JUMP JUMPDEST SWAP3 SWAP2 POP POP JUMP JUMPDEST PUSH1 0x0 DUP1 PUSH1 0x0 DUP1 PUSH1 0x0 PUSH1 0xA0 DUP7 DUP9 SUB SLT ISZERO PUSH2 0xCC8 JUMPI PUSH2 0xCC7 PUSH2 0x7A2 JUMP JUMPDEST JUMPDEST PUSH1 0x0 PUSH2 0xCD6 DUP9 DUP3 DUP10 ADD PUSH2 0xC4C JUMP JUMPDEST SWAP6 POP POP PUSH1 0x20 PUSH2 0xCE7 DUP9 DUP3 DUP10 ADD PUSH2 0xC82 JUMP JUMPDEST SWAP5 POP POP PUSH1 0x40 PUSH2 0xCF8 DUP9 DUP3 DUP10 ADD PUSH2 0xC97 JUMP JUMPDEST SWAP4 POP POP PUSH1 0x60 PUSH2 0xD09 DUP9 DUP3 DUP10 ADD PUSH2 0xC97 JUMP JUMPDEST SWAP3 POP POP PUSH1 0x80 PUSH2 0xD1A DUP9 DUP3 DUP10 ADD PUSH2 0xC4C JUMP JUMPDEST SWAP2 POP POP SWAP3 SWAP6 POP SWAP3 SWAP6 SWAP1 SWAP4 POP JUMP JUMPDEST PUSH1 0x0 PUSH2 0xD32 DUP3 PUSH2 0xC61 JUMP JUMPDEST SWAP2 POP PUSH2 0xD3D DUP4 PUSH2 0xC61 JUMP JUMPDEST SWAP3 POP DUP3 DUP3 MUL PUSH2 0xD4B DUP2 PUSH2 0xC61 JUMP JUMPDEST SWAP2 POP PUSH32 0x8000000000000000000000000000000000000000000000000000000000000000 DUP5 EQ PUSH1 0x0 DUP5 SLT AND ISZERO PUSH2 0xD83 JUMPI PUSH2 0xD82 PUSH2 0x961 JUMP JUMPDEST JUMPDEST DUP3 DUP3 SDIV DUP5 EQ DUP4 ISZERO OR PUSH2 0xD98 JUMPI PUSH2 0xD97 PUSH2 0x961 JUMP JUMPDEST JUMPDEST POP SWAP3 SWAP2 POP POP JUMP INVALID LOG2 PUSH5 0x6970667358 0x22 SLT KECCAK256 CALLDATACOPY PUSH32 0xBACBCC4AFD1EE972E59E304AE4C01BF55FBFCBAEA22DB9017B77711FC2AB6473 PUSH16 0x6C634300081200330000000000000000 "
				},
				"gasEstimates": {
					"creation": {
						"codeDepositCost": "708200",
						"executionCost": "47113",
						"totalCost": "755313"
					},
					"external": {
						"addressToAmountFunded(address)": "2836",
						"fund()": "infinite",
						"funders(uint256)": "5044",
						"minimumusd()": "2407",
						"owner()": "2558",
						"withdraw()": "infinite"
					}
				},
				"methodIdentifiers": {
					"addressToAmountFunded(address)": "3e47d6f3",
					"fund()": "b60d4288",
					"funders(uint256)": "dc0d3dff",
					"minimumusd()": "0848e25a",
					"owner()": "8da5cb5b",
					"withdraw()": "3ccfd60b"
				}
			},
			"storageLayout": {
				"storage": [
					{
						"astId": 55,
						"contract": "FundMe2.sol:FundMe",
						"label": "minimumusd",
						"offset": 0,
						"slot": "0",
						"type": "t_uint256"
					},
					{
						"astId": 58,
						"contract": "FundMe2.sol:FundMe",
						"label": "funders",
						"offset": 0,
						"slot": "1",
						"type": "t_array(t_address)dyn_storage"
					},
					{
						"astId": 62,
						"contract": "FundMe2.sol:FundMe",
						"label": "addressToAmountFunded",
						"offset": 0,
						"slot": "2",
						"type": "t_mapping(t_address,t_uint256)"
					},
					{
						"astId": 196,
						"contract": "FundMe2.sol:FundMe",
						"label": "owner",
						"offset": 0,
						"slot": "3",
						"type": "t_address"
					}
				],
				"types": {
					"t_address": {
						"encoding": "inplace",
						"label": "address",
						"numberOfBytes": "20"
					},
					"t_array(t_address)dyn_storage": {
						"base": "t_address",
						"encoding": "dynamic_array",
						"label": "address[]",
						"numberOfBytes": "32"
					},
					"t_mapping(t_address,t_uint256)": {
						"encoding": "mapping",
						"key": "t_address",
						"label": "mapping(address => uint256)",
						"numberOfBytes": "32",
						"value": "t_uint256"
					},
					"t_uint256": {
						"encoding": "inplace",
						"label": "uint256",
						"numberOfBytes": "32"
					}
				}
			},
			"userdoc": {
				"kind": "user",
				"methods": {},
				"version": 1
			}
		}
	}
}