{
	"data": {
		"bytecode": {
			"linkReferences": {},
			"object": "60806040526040518060400160405280600781526020016040518060400160405280600381526020017f7061740000000000000000000000000000000000000000000000000000000000815250815250600160008201518160000155602082015181600101908162000072919062000303565b5050503480156200008257600080fd5b50620003ea565b600081519050919050565b7f4e487b7100000000000000000000000000000000000000000000000000000000600052604160045260246000fd5b7f4e487b7100000000000000000000000000000000000000000000000000000000600052602260045260246000fd5b600060028204905060018216806200010b57607f821691505b602082108103620001215762000120620000c3565b5b50919050565b60008190508160005260206000209050919050565b60006020601f8301049050919050565b600082821b905092915050565b6000600883026200018b7fffffffffffffffffffffffffffffffffffffffffffffffffffffffffffffffff826200014c565b6200019786836200014c565b95508019841693508086168417925050509392505050565b6000819050919050565b6000819050919050565b6000620001e4620001de620001d884620001af565b620001b9565b620001af565b9050919050565b6000819050919050565b6200020083620001c3565b620002186200020f82620001eb565b84845462000159565b825550505050565b600090565b6200022f62000220565b6200023c818484620001f5565b505050565b5b8181101562000264576200025860008262000225565b60018101905062000242565b5050565b601f821115620002b3576200027d8162000127565b62000288846200013c565b8101602085101562000298578190505b620002b0620002a7856200013c565b83018262000241565b50505b505050565b600082821c905092915050565b6000620002d860001984600802620002b8565b1980831691505092915050565b6000620002f38383620002c5565b9150826002028217905092915050565b6200030e8262000089565b67ffffffffffffffff8111156200032a576200032962000094565b5b620003368254620000f2565b6200034382828562000268565b600060209050601f8311600181146200037b576000841562000366578287015190505b620003728582620002e5565b865550620003e2565b601f1984166200038b8662000127565b60005b82811015620003b5578489015182556001820191506020850194506020810190506200038e565b86831015620003d55784890151620003d1601f891682620002c5565b8355505b6001600288020188555050505b505050505050565b610a9080620003fa6000396000f3fe608060405234801561001057600080fd5b506004361061007d5760003560e01c8063b4a24f501161005b578063b4a24f50146100da578063bf119bdb146100f9578063c9de10ff1461012a578063e1b3202a1461015a5761007d565b806327a03cd7146100825780632e64cec1146100a05780636057361d146100be575b600080fd5b61008a610176565b604051610097919061045c565b60405180910390f35b6100a86101b3565b6040516100b59190610497565b60405180910390f35b6100d860048036038101906100d391906104f2565b6101bc565b005b6100e26101bf565b6040516100f092919061051f565b60405180910390f35b610113600480360381019061010e91906104f2565b610259565b60405161012192919061051f565b60405180910390f35b610144600480360381019061013f9190610684565b610315565b6040516101519190610497565b60405180910390f35b610174600480360381019061016f91906106cd565b610343565b005b60606040518060400160405280600581526020017f68656c6c6f000000000000000000000000000000000000000000000000000000815250905090565b60008054905090565b50565b60018060000154908060010180546101d690610758565b80601f016020809104026020016040519081016040528092919081815260200182805461020290610758565b801561024f5780601f106102245761010080835404028352916020019161024f565b820191906000526020600020905b81548152906001019060200180831161023257829003601f168201915b5050505050905082565b6003818154811061026957600080fd5b906000526020600020906002020160009150905080600001549080600101805461029290610758565b80601f01602080910402602001604051908101604052809291908181526020018280546102be90610758565b801561030b5780601f106102e05761010080835404028352916020019161030b565b820191906000526020600020905b8154815290600101906020018083116102ee57829003601f168201915b5050505050905082565b6004818051602081018201805184825260208301602085012081835280955050505050506000915090505481565b600360405180604001604052808381526020018481525090806001815401808255809150506001900390600052602060002090600202016000909190919091506000820151816000015560208201518160010190816103a29190610935565b505050806004836040516103b69190610a43565b9081526020016040518091039020819055505050565b600081519050919050565b600082825260208201905092915050565b60005b838110156104065780820151818401526020810190506103eb565b60008484015250505050565b6000601f19601f8301169050919050565b600061042e826103cc565b61043881856103d7565b93506104488185602086016103e8565b61045181610412565b840191505092915050565b600060208201905081810360008301526104768184610423565b905092915050565b6000819050919050565b6104918161047e565b82525050565b60006020820190506104ac6000830184610488565b92915050565b6000604051905090565b600080fd5b600080fd5b6104cf8161047e565b81146104da57600080fd5b50565b6000813590506104ec816104c6565b92915050565b600060208284031215610508576105076104bc565b5b6000610516848285016104dd565b91505092915050565b60006040820190506105346000830185610488565b81810360208301526105468184610423565b90509392505050565b600080fd5b600080fd5b7f4e487b7100000000000000000000000000000000000000000000000000000000600052604160045260246000fd5b61059182610412565b810181811067ffffffffffffffff821117156105b0576105af610559565b5b80604052505050565b60006105c36104b2565b90506105cf8282610588565b919050565b600067ffffffffffffffff8211156105ef576105ee610559565b5b6105f882610412565b9050602081019050919050565b82818337600083830152505050565b6000610627610622846105d4565b6105b9565b90508281526020810184848401111561064357610642610554565b5b61064e848285610605565b509392505050565b600082601f83011261066b5761066a61054f565b5b813561067b848260208601610614565b91505092915050565b60006020828403121561069a576106996104bc565b5b600082013567ffffffffffffffff8111156106b8576106b76104c1565b5b6106c484828501610656565b91505092915050565b600080604083850312156106e4576106e36104bc565b5b600083013567ffffffffffffffff811115610702576107016104c1565b5b61070e85828601610656565b925050602061071f858286016104dd565b9150509250929050565b7f4e487b7100000000000000000000000000000000000000000000000000000000600052602260045260246000fd5b6000600282049050600182168061077057607f821691505b60208210810361078357610782610729565b5b50919050565b60008190508160005260206000209050919050565b60006020601f8301049050919050565b600082821b905092915050565b6000600883026107eb7fffffffffffffffffffffffffffffffffffffffffffffffffffffffffffffffff826107ae565b6107f586836107ae565b95508019841693508086168417925050509392505050565b6000819050919050565b600061083261082d6108288461047e565b61080d565b61047e565b9050919050565b6000819050919050565b61084c83610817565b61086061085882610839565b8484546107bb565b825550505050565b600090565b610875610868565b610880818484610843565b505050565b5b818110156108a45761089960008261086d565b600181019050610886565b5050565b601f8211156108e9576108ba81610789565b6108c38461079e565b810160208510156108d2578190505b6108e66108de8561079e565b830182610885565b50505b505050565b600082821c905092915050565b600061090c600019846008026108ee565b1980831691505092915050565b600061092583836108fb565b9150826002028217905092915050565b61093e826103cc565b67ffffffffffffffff81111561095757610956610559565b5b6109618254610758565b61096c8282856108a8565b600060209050601f83116001811461099f576000841561098d578287015190505b6109978582610919565b8655506109ff565b601f1984166109ad86610789565b60005b828110156109d5578489015182556001820191506020850194506020810190506109b0565b868310156109f257848901516109ee601f8916826108fb565b8355505b6001600288020188555050505b505050505050565b600081905092915050565b6000610a1d826103cc565b610a278185610a07565b9350610a378185602086016103e8565b80840191505092915050565b6000610a4f8284610a12565b91508190509291505056fea2646970667358221220591c0eb7697895b3123ec69329f27efdb4646f97a54e4fa50779c297188349a064736f6c63430008120033",
			"opcodes": "PUSH1 0x80 PUSH1 0x40 MSTORE PUSH1 0x40 MLOAD DUP1 PUSH1 0x40 ADD PUSH1 0x40 MSTORE DUP1 PUSH1 0x7 DUP2 MSTORE PUSH1 0x20 ADD PUSH1 0x40 MLOAD DUP1 PUSH1 0x40 ADD PUSH1 0x40 MSTORE DUP1 PUSH1 0x3 DUP2 MSTORE PUSH1 0x20 ADD PUSH32 0x7061740000000000000000000000000000000000000000000000000000000000 DUP2 MSTORE POP DUP2 MSTORE POP PUSH1 0x1 PUSH1 0x0 DUP3 ADD MLOAD DUP2 PUSH1 0x0 ADD SSTORE PUSH1 0x20 DUP3 ADD MLOAD DUP2 PUSH1 0x1 ADD SWAP1 DUP2 PUSH3 0x72 SWAP2 SWAP1 PUSH3 0x303 JUMP JUMPDEST POP POP POP CALLVALUE DUP1 ISZERO PUSH3 0x82 JUMPI PUSH1 0x0 DUP1 REVERT JUMPDEST POP PUSH3 0x3EA JUMP JUMPDEST PUSH1 0x0 DUP2 MLOAD SWAP1 POP SWAP2 SWAP1 POP JUMP JUMPDEST PUSH32 0x4E487B7100000000000000000000000000000000000000000000000000000000 PUSH1 0x0 MSTORE PUSH1 0x41 PUSH1 0x4 MSTORE PUSH1 0x24 PUSH1 0x0 REVERT JUMPDEST PUSH32 0x4E487B7100000000000000000000000000000000000000000000000000000000 PUSH1 0x0 MSTORE PUSH1 0x22 PUSH1 0x4 MSTORE PUSH1 0x24 PUSH1 0x0 REVERT JUMPDEST PUSH1 0x0 PUSH1 0x2 DUP3 DIV SWAP1 POP PUSH1 0x1 DUP3 AND DUP1 PUSH3 0x10B JUMPI PUSH1 0x7F DUP3 AND SWAP2 POP JUMPDEST PUSH1 0x20 DUP3 LT DUP2 SUB PUSH3 0x121 JUMPI PUSH3 0x120 PUSH3 0xC3 JUMP JUMPDEST JUMPDEST POP SWAP2 SWAP1 POP JUMP JUMPDEST PUSH1 0x0 DUP2 SWAP1 POP DUP2 PUSH1 0x0 MSTORE PUSH1 0x20 PUSH1 0x0 KECCAK256 SWAP1 POP SWAP2 SWAP1 POP JUMP JUMPDEST PUSH1 0x0 PUSH1 0x20 PUSH1 0x1F DUP4 ADD DIV SWAP1 POP SWAP2 SWAP1 POP JUMP JUMPDEST PUSH1 0x0 DUP3 DUP3 SHL SWAP1 POP SWAP3 SWAP2 POP POP JUMP JUMPDEST PUSH1 0x0 PUSH1 0x8 DUP4 MUL PUSH3 0x18B PUSH32 0xFFFFFFFFFFFFFFFFFFFFFFFFFFFFFFFFFFFFFFFFFFFFFFFFFFFFFFFFFFFFFFFF DUP3 PUSH3 0x14C JUMP JUMPDEST PUSH3 0x197 DUP7 DUP4 PUSH3 0x14C JUMP JUMPDEST SWAP6 POP DUP1 NOT DUP5 AND SWAP4 POP DUP1 DUP7 AND DUP5 OR SWAP3 POP POP POP SWAP4 SWAP3 POP POP POP JUMP JUMPDEST PUSH1 0x0 DUP2 SWAP1 POP SWAP2 SWAP1 POP JUMP JUMPDEST PUSH1 0x0 DUP2 SWAP1 POP SWAP2 SWAP1 POP JUMP JUMPDEST PUSH1 0x0 PUSH3 0x1E4 PUSH3 0x1DE PUSH3 0x1D8 DUP5 PUSH3 0x1AF JUMP JUMPDEST PUSH3 0x1B9 JUMP JUMPDEST PUSH3 0x1AF JUMP JUMPDEST SWAP1 POP SWAP2 SWAP1 POP JUMP JUMPDEST PUSH1 0x0 DUP2 SWAP1 POP SWAP2 SWAP1 POP JUMP JUMPDEST PUSH3 0x200 DUP4 PUSH3 0x1C3 JUMP JUMPDEST PUSH3 0x218 PUSH3 0x20F DUP3 PUSH3 0x1EB JUMP JUMPDEST DUP5 DUP5 SLOAD PUSH3 0x159 JUMP JUMPDEST DUP3 SSTORE POP POP POP POP JUMP JUMPDEST PUSH1 0x0 SWAP1 JUMP JUMPDEST PUSH3 0x22F PUSH3 0x220 JUMP JUMPDEST PUSH3 0x23C DUP2 DUP5 DUP5 PUSH3 0x1F5 JUMP JUMPDEST POP POP POP JUMP JUMPDEST JUMPDEST DUP2 DUP2 LT ISZERO PUSH3 0x264 JUMPI PUSH3 0x258 PUSH1 0x0 DUP3 PUSH3 0x225 JUMP JUMPDEST PUSH1 0x1 DUP2 ADD SWAP1 POP PUSH3 0x242 JUMP JUMPDEST POP POP JUMP JUMPDEST PUSH1 0x1F DUP3 GT ISZERO PUSH3 0x2B3 JUMPI PUSH3 0x27D DUP2 PUSH3 0x127 JUMP JUMPDEST PUSH3 0x288 DUP5 PUSH3 0x13C JUMP JUMPDEST DUP2 ADD PUSH1 0x20 DUP6 LT ISZERO PUSH3 0x298 JUMPI DUP2 SWAP1 POP JUMPDEST PUSH3 0x2B0 PUSH3 0x2A7 DUP6 PUSH3 0x13C JUMP JUMPDEST DUP4 ADD DUP3 PUSH3 0x241 JUMP JUMPDEST POP POP JUMPDEST POP POP POP JUMP JUMPDEST PUSH1 0x0 DUP3 DUP3 SHR SWAP1 POP SWAP3 SWAP2 POP POP JUMP JUMPDEST PUSH1 0x0 PUSH3 0x2D8 PUSH1 0x0 NOT DUP5 PUSH1 0x8 MUL PUSH3 0x2B8 JUMP JUMPDEST NOT DUP1 DUP4 AND SWAP2 POP POP SWAP3 SWAP2 POP POP JUMP JUMPDEST PUSH1 0x0 PUSH3 0x2F3 DUP4 DUP4 PUSH3 0x2C5 JUMP JUMPDEST SWAP2 POP DUP3 PUSH1 0x2 MUL DUP3 OR SWAP1 POP SWAP3 SWAP2 POP POP JUMP JUMPDEST PUSH3 0x30E DUP3 PUSH3 0x89 JUMP JUMPDEST PUSH8 0xFFFFFFFFFFFFFFFF DUP2 GT ISZERO PUSH3 0x32A JUMPI PUSH3 0x329 PUSH3 0x94 JUMP JUMPDEST JUMPDEST PUSH3 0x336 DUP3 SLOAD PUSH3 0xF2 JUMP JUMPDEST PUSH3 0x343 DUP3 DUP3 DUP6 PUSH3 0x268 JUMP JUMPDEST PUSH1 0x0 PUSH1 0x20 SWAP1 POP PUSH1 0x1F DUP4 GT PUSH1 0x1 DUP2 EQ PUSH3 0x37B JUMPI PUSH1 0x0 DUP5 ISZERO PUSH3 0x366 JUMPI DUP3 DUP8 ADD MLOAD SWAP1 POP JUMPDEST PUSH3 0x372 DUP6 DUP3 PUSH3 0x2E5 JUMP JUMPDEST DUP7 SSTORE POP PUSH3 0x3E2 JUMP JUMPDEST PUSH1 0x1F NOT DUP5 AND PUSH3 0x38B DUP7 PUSH3 0x127 JUMP JUMPDEST PUSH1 0x0 JUMPDEST DUP3 DUP2 LT ISZERO PUSH3 0x3B5 JUMPI DUP5 DUP10 ADD MLOAD DUP3 SSTORE PUSH1 0x1 DUP3 ADD SWAP2 POP PUSH1 0x20 DUP6 ADD SWAP5 POP PUSH1 0x20 DUP2 ADD SWAP1 POP PUSH3 0x38E JUMP JUMPDEST DUP7 DUP4 LT ISZERO PUSH3 0x3D5 JUMPI DUP5 DUP10 ADD MLOAD PUSH3 0x3D1 PUSH1 0x1F DUP10 AND DUP3 PUSH3 0x2C5 JUMP JUMPDEST DUP4 SSTORE POP JUMPDEST PUSH1 0x1 PUSH1 0x2 DUP9 MUL ADD DUP9 SSTORE POP POP POP JUMPDEST POP POP POP POP POP POP JUMP JUMPDEST PUSH2 0xA90 DUP1 PUSH3 0x3FA PUSH1 0x0 CODECOPY PUSH1 0x0 RETURN INVALID PUSH1 0x80 PUSH1 0x40 MSTORE CALLVALUE DUP1 ISZERO PUSH2 0x10 JUMPI PUSH1 0x0 DUP1 REVERT JUMPDEST POP PUSH1 0x4 CALLDATASIZE LT PUSH2 0x7D JUMPI PUSH1 0x0 CALLDATALOAD PUSH1 0xE0 SHR DUP1 PUSH4 0xB4A24F50 GT PUSH2 0x5B JUMPI DUP1 PUSH4 0xB4A24F50 EQ PUSH2 0xDA JUMPI DUP1 PUSH4 0xBF119BDB EQ PUSH2 0xF9 JUMPI DUP1 PUSH4 0xC9DE10FF EQ PUSH2 0x12A JUMPI DUP1 PUSH4 0xE1B3202A EQ PUSH2 0x15A JUMPI PUSH2 0x7D JUMP JUMPDEST DUP1 PUSH4 0x27A03CD7 EQ PUSH2 0x82 JUMPI DUP1 PUSH4 0x2E64CEC1 EQ PUSH2 0xA0 JUMPI DUP1 PUSH4 0x6057361D EQ PUSH2 0xBE JUMPI JUMPDEST PUSH1 0x0 DUP1 REVERT JUMPDEST PUSH2 0x8A PUSH2 0x176 JUMP JUMPDEST PUSH1 0x40 MLOAD PUSH2 0x97 SWAP2 SWAP1 PUSH2 0x45C JUMP JUMPDEST PUSH1 0x40 MLOAD DUP1 SWAP2 SUB SWAP1 RETURN JUMPDEST PUSH2 0xA8 PUSH2 0x1B3 JUMP JUMPDEST PUSH1 0x40 MLOAD PUSH2 0xB5 SWAP2 SWAP1 PUSH2 0x497 JUMP JUMPDEST PUSH1 0x40 MLOAD DUP1 SWAP2 SUB SWAP1 RETURN JUMPDEST PUSH2 0xD8 PUSH1 0x4 DUP1 CALLDATASIZE SUB DUP2 ADD SWAP1 PUSH2 0xD3 SWAP2 SWAP1 PUSH2 0x4F2 JUMP JUMPDEST PUSH2 0x1BC JUMP JUMPDEST STOP JUMPDEST PUSH2 0xE2 PUSH2 0x1BF JUMP JUMPDEST PUSH1 0x40 MLOAD PUSH2 0xF0 SWAP3 SWAP2 SWAP1 PUSH2 0x51F JUMP JUMPDEST PUSH1 0x40 MLOAD DUP1 SWAP2 SUB SWAP1 RETURN JUMPDEST PUSH2 0x113 PUSH1 0x4 DUP1 CALLDATASIZE SUB DUP2 ADD SWAP1 PUSH2 0x10E SWAP2 SWAP1 PUSH2 0x4F2 JUMP JUMPDEST PUSH2 0x259 JUMP JUMPDEST PUSH1 0x40 MLOAD PUSH2 0x121 SWAP3 SWAP2 SWAP1 PUSH2 0x51F JUMP JUMPDEST PUSH1 0x40 MLOAD DUP1 SWAP2 SUB SWAP1 RETURN JUMPDEST PUSH2 0x144 PUSH1 0x4 DUP1 CALLDATASIZE SUB DUP2 ADD SWAP1 PUSH2 0x13F SWAP2 SWAP1 PUSH2 0x684 JUMP JUMPDEST PUSH2 0x315 JUMP JUMPDEST PUSH1 0x40 MLOAD PUSH2 0x151 SWAP2 SWAP1 PUSH2 0x497 JUMP JUMPDEST PUSH1 0x40 MLOAD DUP1 SWAP2 SUB SWAP1 RETURN JUMPDEST PUSH2 0x174 PUSH1 0x4 DUP1 CALLDATASIZE SUB DUP2 ADD SWAP1 PUSH2 0x16F SWAP2 SWAP1 PUSH2 0x6CD JUMP JUMPDEST PUSH2 0x343 JUMP JUMPDEST STOP JUMPDEST PUSH1 0x60 PUSH1 0x40 MLOAD DUP1 PUSH1 0x40 ADD PUSH1 0x40 MSTORE DUP1 PUSH1 0x5 DUP2 MSTORE PUSH1 0x20 ADD PUSH32 0x68656C6C6F000000000000000000000000000000000000000000000000000000 DUP2 MSTORE POP SWAP1 POP SWAP1 JUMP JUMPDEST PUSH1 0x0 DUP1 SLOAD SWAP1 POP SWAP1 JUMP JUMPDEST POP JUMP JUMPDEST PUSH1 0x1 DUP1 PUSH1 0x0 ADD SLOAD SWAP1 DUP1 PUSH1 0x1 ADD DUP1 SLOAD PUSH2 0x1D6 SWAP1 PUSH2 0x758 JUMP JUMPDEST DUP1 PUSH1 0x1F ADD PUSH1 0x20 DUP1 SWAP2 DIV MUL PUSH1 0x20 ADD PUSH1 0x40 MLOAD SWAP1 DUP2 ADD PUSH1 0x40 MSTORE DUP1 SWAP3 SWAP2 SWAP1 DUP2 DUP2 MSTORE PUSH1 0x20 ADD DUP3 DUP1 SLOAD PUSH2 0x202 SWAP1 PUSH2 0x758 JUMP JUMPDEST DUP1 ISZERO PUSH2 0x24F JUMPI DUP1 PUSH1 0x1F LT PUSH2 0x224 JUMPI PUSH2 0x100 DUP1 DUP4 SLOAD DIV MUL DUP4 MSTORE SWAP2 PUSH1 0x20 ADD SWAP2 PUSH2 0x24F JUMP JUMPDEST DUP3 ADD SWAP2 SWAP1 PUSH1 0x0 MSTORE PUSH1 0x20 PUSH1 0x0 KECCAK256 SWAP1 JUMPDEST DUP2 SLOAD DUP2 MSTORE SWAP1 PUSH1 0x1 ADD SWAP1 PUSH1 0x20 ADD DUP1 DUP4 GT PUSH2 0x232 JUMPI DUP3 SWAP1 SUB PUSH1 0x1F AND DUP3 ADD SWAP2 JUMPDEST POP POP POP POP POP SWAP1 POP DUP3 JUMP JUMPDEST PUSH1 0x3 DUP2 DUP2 SLOAD DUP2 LT PUSH2 0x269 JUMPI PUSH1 0x0 DUP1 REVERT JUMPDEST SWAP1 PUSH1 0x0 MSTORE PUSH1 0x20 PUSH1 0x0 KECCAK256 SWAP1 PUSH1 0x2 MUL ADD PUSH1 0x0 SWAP2 POP SWAP1 POP DUP1 PUSH1 0x0 ADD SLOAD SWAP1 DUP1 PUSH1 0x1 ADD DUP1 SLOAD PUSH2 0x292 SWAP1 PUSH2 0x758 JUMP JUMPDEST DUP1 PUSH1 0x1F ADD PUSH1 0x20 DUP1 SWAP2 DIV MUL PUSH1 0x20 ADD PUSH1 0x40 MLOAD SWAP1 DUP2 ADD PUSH1 0x40 MSTORE DUP1 SWAP3 SWAP2 SWAP1 DUP2 DUP2 MSTORE PUSH1 0x20 ADD DUP3 DUP1 SLOAD PUSH2 0x2BE SWAP1 PUSH2 0x758 JUMP JUMPDEST DUP1 ISZERO PUSH2 0x30B JUMPI DUP1 PUSH1 0x1F LT PUSH2 0x2E0 JUMPI PUSH2 0x100 DUP1 DUP4 SLOAD DIV MUL DUP4 MSTORE SWAP2 PUSH1 0x20 ADD SWAP2 PUSH2 0x30B JUMP JUMPDEST DUP3 ADD SWAP2 SWAP1 PUSH1 0x0 MSTORE PUSH1 0x20 PUSH1 0x0 KECCAK256 SWAP1 JUMPDEST DUP2 SLOAD DUP2 MSTORE SWAP1 PUSH1 0x1 ADD SWAP1 PUSH1 0x20 ADD DUP1 DUP4 GT PUSH2 0x2EE JUMPI DUP3 SWAP1 SUB PUSH1 0x1F AND DUP3 ADD SWAP2 JUMPDEST POP POP POP POP POP SWAP1 POP DUP3 JUMP JUMPDEST PUSH1 0x4 DUP2 DUP1 MLOAD PUSH1 0x20 DUP2 ADD DUP3 ADD DUP1 MLOAD DUP5 DUP3 MSTORE PUSH1 0x20 DUP4 ADD PUSH1 0x20 DUP6 ADD KECCAK256 DUP2 DUP4 MSTORE DUP1 SWAP6 POP POP POP POP POP POP PUSH1 0x0 SWAP2 POP SWAP1 POP SLOAD DUP2 JUMP JUMPDEST PUSH1 0x3 PUSH1 0x40 MLOAD DUP1 PUSH1 0x40 ADD PUSH1 0x40 MSTORE DUP1 DUP4 DUP2 MSTORE PUSH1 0x20 ADD DUP5 DUP2 MSTORE POP SWAP1 DUP1 PUSH1 0x1 DUP2 SLOAD ADD DUP1 DUP3 SSTORE DUP1 SWAP2 POP POP PUSH1 0x1 SWAP1 SUB SWAP1 PUSH1 0x0 MSTORE PUSH1 0x20 PUSH1 0x0 KECCAK256 SWAP1 PUSH1 0x2 MUL ADD PUSH1 0x0 SWAP1 SWAP2 SWAP1 SWAP2 SWAP1 SWAP2 POP PUSH1 0x0 DUP3 ADD MLOAD DUP2 PUSH1 0x0 ADD SSTORE PUSH1 0x20 DUP3 ADD MLOAD DUP2 PUSH1 0x1 ADD SWAP1 DUP2 PUSH2 0x3A2 SWAP2 SWAP1 PUSH2 0x935 JUMP JUMPDEST POP POP POP DUP1 PUSH1 0x4 DUP4 PUSH1 0x40 MLOAD PUSH2 0x3B6 SWAP2 SWAP1 PUSH2 0xA43 JUMP JUMPDEST SWAP1 DUP2 MSTORE PUSH1 0x20 ADD PUSH1 0x40 MLOAD DUP1 SWAP2 SUB SWAP1 KECCAK256 DUP2 SWAP1 SSTORE POP POP POP JUMP JUMPDEST PUSH1 0x0 DUP2 MLOAD SWAP1 POP SWAP2 SWAP1 POP JUMP JUMPDEST PUSH1 0x0 DUP3 DUP3 MSTORE PUSH1 0x20 DUP3 ADD SWAP1 POP SWAP3 SWAP2 POP POP JUMP JUMPDEST PUSH1 0x0 JUMPDEST DUP4 DUP2 LT ISZERO PUSH2 0x406 JUMPI DUP1 DUP3 ADD MLOAD DUP2 DUP5 ADD MSTORE PUSH1 0x20 DUP2 ADD SWAP1 POP PUSH2 0x3EB JUMP JUMPDEST PUSH1 0x0 DUP5 DUP5 ADD MSTORE POP POP POP POP JUMP JUMPDEST PUSH1 0x0 PUSH1 0x1F NOT PUSH1 0x1F DUP4 ADD AND SWAP1 POP SWAP2 SWAP1 POP JUMP JUMPDEST PUSH1 0x0 PUSH2 0x42E DUP3 PUSH2 0x3CC JUMP JUMPDEST PUSH2 0x438 DUP2 DUP6 PUSH2 0x3D7 JUMP JUMPDEST SWAP4 POP PUSH2 0x448 DUP2 DUP6 PUSH1 0x20 DUP7 ADD PUSH2 0x3E8 JUMP JUMPDEST PUSH2 0x451 DUP2 PUSH2 0x412 JUMP JUMPDEST DUP5 ADD SWAP2 POP POP SWAP3 SWAP2 POP POP JUMP JUMPDEST PUSH1 0x0 PUSH1 0x20 DUP3 ADD SWAP1 POP DUP2 DUP2 SUB PUSH1 0x0 DUP4 ADD MSTORE PUSH2 0x476 DUP2 DUP5 PUSH2 0x423 JUMP JUMPDEST SWAP1 POP SWAP3 SWAP2 POP POP JUMP JUMPDEST PUSH1 0x0 DUP2 SWAP1 POP SWAP2 SWAP1 POP JUMP JUMPDEST PUSH2 0x491 DUP2 PUSH2 0x47E JUMP JUMPDEST DUP3 MSTORE POP POP JUMP JUMPDEST PUSH1 0x0 PUSH1 0x20 DUP3 ADD SWAP1 POP PUSH2 0x4AC PUSH1 0x0 DUP4 ADD DUP5 PUSH2 0x488 JUMP JUMPDEST SWAP3 SWAP2 POP POP JUMP JUMPDEST PUSH1 0x0 PUSH1 0x40 MLOAD SWAP1 POP SWAP1 JUMP JUMPDEST PUSH1 0x0 DUP1 REVERT JUMPDEST PUSH1 0x0 DUP1 REVERT JUMPDEST PUSH2 0x4CF DUP2 PUSH2 0x47E JUMP JUMPDEST DUP2 EQ PUSH2 0x4DA JUMPI PUSH1 0x0 DUP1 REVERT JUMPDEST POP JUMP JUMPDEST PUSH1 0x0 DUP2 CALLDATALOAD SWAP1 POP PUSH2 0x4EC DUP2 PUSH2 0x4C6 JUMP JUMPDEST SWAP3 SWAP2 POP POP JUMP JUMPDEST PUSH1 0x0 PUSH1 0x20 DUP3 DUP5 SUB SLT ISZERO PUSH2 0x508 JUMPI PUSH2 0x507 PUSH2 0x4BC JUMP JUMPDEST JUMPDEST PUSH1 0x0 PUSH2 0x516 DUP5 DUP3 DUP6 ADD PUSH2 0x4DD JUMP JUMPDEST SWAP2 POP POP SWAP3 SWAP2 POP POP JUMP JUMPDEST PUSH1 0x0 PUSH1 0x40 DUP3 ADD SWAP1 POP PUSH2 0x534 PUSH1 0x0 DUP4 ADD DUP6 PUSH2 0x488 JUMP JUMPDEST DUP2 DUP2 SUB PUSH1 0x20 DUP4 ADD MSTORE PUSH2 0x546 DUP2 DUP5 PUSH2 0x423 JUMP JUMPDEST SWAP1 POP SWAP4 SWAP3 POP POP POP JUMP JUMPDEST PUSH1 0x0 DUP1 REVERT JUMPDEST PUSH1 0x0 DUP1 REVERT JUMPDEST PUSH32 0x4E487B7100000000000000000000000000000000000000000000000000000000 PUSH1 0x0 MSTORE PUSH1 0x41 PUSH1 0x4 MSTORE PUSH1 0x24 PUSH1 0x0 REVERT JUMPDEST PUSH2 0x591 DUP3 PUSH2 0x412 JUMP JUMPDEST DUP2 ADD DUP2 DUP2 LT PUSH8 0xFFFFFFFFFFFFFFFF DUP3 GT OR ISZERO PUSH2 0x5B0 JUMPI PUSH2 0x5AF PUSH2 0x559 JUMP JUMPDEST JUMPDEST DUP1 PUSH1 0x40 MSTORE POP POP POP JUMP JUMPDEST PUSH1 0x0 PUSH2 0x5C3 PUSH2 0x4B2 JUMP JUMPDEST SWAP1 POP PUSH2 0x5CF DUP3 DUP3 PUSH2 0x588 JUMP JUMPDEST SWAP2 SWAP1 POP JUMP JUMPDEST PUSH1 0x0 PUSH8 0xFFFFFFFFFFFFFFFF DUP3 GT ISZERO PUSH2 0x5EF JUMPI PUSH2 0x5EE PUSH2 0x559 JUMP JUMPDEST JUMPDEST PUSH2 0x5F8 DUP3 PUSH2 0x412 JUMP JUMPDEST SWAP1 POP PUSH1 0x20 DUP2 ADD SWAP1 POP SWAP2 SWAP1 POP JUMP JUMPDEST DUP3 DUP2 DUP4 CALLDATACOPY PUSH1 0x0 DUP4 DUP4 ADD MSTORE POP POP POP JUMP JUMPDEST PUSH1 0x0 PUSH2 0x627 PUSH2 0x622 DUP5 PUSH2 0x5D4 JUMP JUMPDEST PUSH2 0x5B9 JUMP JUMPDEST SWAP1 POP DUP3 DUP2 MSTORE PUSH1 0x20 DUP2 ADD DUP5 DUP5 DUP5 ADD GT ISZERO PUSH2 0x643 JUMPI PUSH2 0x642 PUSH2 0x554 JUMP JUMPDEST JUMPDEST PUSH2 0x64E DUP5 DUP3 DUP6 PUSH2 0x605 JUMP JUMPDEST POP SWAP4 SWAP3 POP POP POP JUMP JUMPDEST PUSH1 0x0 DUP3 PUSH1 0x1F DUP4 ADD SLT PUSH2 0x66B JUMPI PUSH2 0x66A PUSH2 0x54F JUMP JUMPDEST JUMPDEST DUP2 CALLDATALOAD PUSH2 0x67B DUP5 DUP3 PUSH1 0x20 DUP7 ADD PUSH2 0x614 JUMP JUMPDEST SWAP2 POP POP SWAP3 SWAP2 POP POP JUMP JUMPDEST PUSH1 0x0 PUSH1 0x20 DUP3 DUP5 SUB SLT ISZERO PUSH2 0x69A JUMPI PUSH2 0x699 PUSH2 0x4BC JUMP JUMPDEST JUMPDEST PUSH1 0x0 DUP3 ADD CALLDATALOAD PUSH8 0xFFFFFFFFFFFFFFFF DUP2 GT ISZERO PUSH2 0x6B8 JUMPI PUSH2 0x6B7 PUSH2 0x4C1 JUMP JUMPDEST JUMPDEST PUSH2 0x6C4 DUP5 DUP3 DUP6 ADD PUSH2 0x656 JUMP JUMPDEST SWAP2 POP POP SWAP3 SWAP2 POP POP JUMP JUMPDEST PUSH1 0x0 DUP1 PUSH1 0x40 DUP4 DUP6 SUB SLT ISZERO PUSH2 0x6E4 JUMPI PUSH2 0x6E3 PUSH2 0x4BC JUMP JUMPDEST JUMPDEST PUSH1 0x0 DUP4 ADD CALLDATALOAD PUSH8 0xFFFFFFFFFFFFFFFF DUP2 GT ISZERO PUSH2 0x702 JUMPI PUSH2 0x701 PUSH2 0x4C1 JUMP JUMPDEST JUMPDEST PUSH2 0x70E DUP6 DUP3 DUP7 ADD PUSH2 0x656 JUMP JUMPDEST SWAP3 POP POP PUSH1 0x20 PUSH2 0x71F DUP6 DUP3 DUP7 ADD PUSH2 0x4DD JUMP JUMPDEST SWAP2 POP POP SWAP3 POP SWAP3 SWAP1 POP JUMP JUMPDEST PUSH32 0x4E487B7100000000000000000000000000000000000000000000000000000000 PUSH1 0x0 MSTORE PUSH1 0x22 PUSH1 0x4 MSTORE PUSH1 0x24 PUSH1 0x0 REVERT JUMPDEST PUSH1 0x0 PUSH1 0x2 DUP3 DIV SWAP1 POP PUSH1 0x1 DUP3 AND DUP1 PUSH2 0x770 JUMPI PUSH1 0x7F DUP3 AND SWAP2 POP JUMPDEST PUSH1 0x20 DUP3 LT DUP2 SUB PUSH2 0x783 JUMPI PUSH2 0x782 PUSH2 0x729 JUMP JUMPDEST JUMPDEST POP SWAP2 SWAP1 POP JUMP JUMPDEST PUSH1 0x0 DUP2 SWAP1 POP DUP2 PUSH1 0x0 MSTORE PUSH1 0x20 PUSH1 0x0 KECCAK256 SWAP1 POP SWAP2 SWAP1 POP JUMP JUMPDEST PUSH1 0x0 PUSH1 0x20 PUSH1 0x1F DUP4 ADD DIV SWAP1 POP SWAP2 SWAP1 POP JUMP JUMPDEST PUSH1 0x0 DUP3 DUP3 SHL SWAP1 POP SWAP3 SWAP2 POP POP JUMP JUMPDEST PUSH1 0x0 PUSH1 0x8 DUP4 MUL PUSH2 0x7EB PUSH32 0xFFFFFFFFFFFFFFFFFFFFFFFFFFFFFFFFFFFFFFFFFFFFFFFFFFFFFFFFFFFFFFFF DUP3 PUSH2 0x7AE JUMP JUMPDEST PUSH2 0x7F5 DUP7 DUP4 PUSH2 0x7AE JUMP JUMPDEST SWAP6 POP DUP1 NOT DUP5 AND SWAP4 POP DUP1 DUP7 AND DUP5 OR SWAP3 POP POP POP SWAP4 SWAP3 POP POP POP JUMP JUMPDEST PUSH1 0x0 DUP2 SWAP1 POP SWAP2 SWAP1 POP JUMP JUMPDEST PUSH1 0x0 PUSH2 0x832 PUSH2 0x82D PUSH2 0x828 DUP5 PUSH2 0x47E JUMP JUMPDEST PUSH2 0x80D JUMP JUMPDEST PUSH2 0x47E JUMP JUMPDEST SWAP1 POP SWAP2 SWAP1 POP JUMP JUMPDEST PUSH1 0x0 DUP2 SWAP1 POP SWAP2 SWAP1 POP JUMP JUMPDEST PUSH2 0x84C DUP4 PUSH2 0x817 JUMP JUMPDEST PUSH2 0x860 PUSH2 0x858 DUP3 PUSH2 0x839 JUMP JUMPDEST DUP5 DUP5 SLOAD PUSH2 0x7BB JUMP JUMPDEST DUP3 SSTORE POP POP POP POP JUMP JUMPDEST PUSH1 0x0 SWAP1 JUMP JUMPDEST PUSH2 0x875 PUSH2 0x868 JUMP JUMPDEST PUSH2 0x880 DUP2 DUP5 DUP5 PUSH2 0x843 JUMP JUMPDEST POP POP POP JUMP JUMPDEST JUMPDEST DUP2 DUP2 LT ISZERO PUSH2 0x8A4 JUMPI PUSH2 0x899 PUSH1 0x0 DUP3 PUSH2 0x86D JUMP JUMPDEST PUSH1 0x1 DUP2 ADD SWAP1 POP PUSH2 0x886 JUMP JUMPDEST POP POP JUMP JUMPDEST PUSH1 0x1F DUP3 GT ISZERO PUSH2 0x8E9 JUMPI PUSH2 0x8BA DUP2 PUSH2 0x789 JUMP JUMPDEST PUSH2 0x8C3 DUP5 PUSH2 0x79E JUMP JUMPDEST DUP2 ADD PUSH1 0x20 DUP6 LT ISZERO PUSH2 0x8D2 JUMPI DUP2 SWAP1 POP JUMPDEST PUSH2 0x8E6 PUSH2 0x8DE DUP6 PUSH2 0x79E JUMP JUMPDEST DUP4 ADD DUP3 PUSH2 0x885 JUMP JUMPDEST POP POP JUMPDEST POP POP POP JUMP JUMPDEST PUSH1 0x0 DUP3 DUP3 SHR SWAP1 POP SWAP3 SWAP2 POP POP JUMP JUMPDEST PUSH1 0x0 PUSH2 0x90C PUSH1 0x0 NOT DUP5 PUSH1 0x8 MUL PUSH2 0x8EE JUMP JUMPDEST NOT DUP1 DUP4 AND SWAP2 POP POP SWAP3 SWAP2 POP POP JUMP JUMPDEST PUSH1 0x0 PUSH2 0x925 DUP4 DUP4 PUSH2 0x8FB JUMP JUMPDEST SWAP2 POP DUP3 PUSH1 0x2 MUL DUP3 OR SWAP1 POP SWAP3 SWAP2 POP POP JUMP JUMPDEST PUSH2 0x93E DUP3 PUSH2 0x3CC JUMP JUMPDEST PUSH8 0xFFFFFFFFFFFFFFFF DUP2 GT ISZERO PUSH2 0x957 JUMPI PUSH2 0x956 PUSH2 0x559 JUMP JUMPDEST JUMPDEST PUSH2 0x961 DUP3 SLOAD PUSH2 0x758 JUMP JUMPDEST PUSH2 0x96C DUP3 DUP3 DUP6 PUSH2 0x8A8 JUMP JUMPDEST PUSH1 0x0 PUSH1 0x20 SWAP1 POP PUSH1 0x1F DUP4 GT PUSH1 0x1 DUP2 EQ PUSH2 0x99F JUMPI PUSH1 0x0 DUP5 ISZERO PUSH2 0x98D JUMPI DUP3 DUP8 ADD MLOAD SWAP1 POP JUMPDEST PUSH2 0x997 DUP6 DUP3 PUSH2 0x919 JUMP JUMPDEST DUP7 SSTORE POP PUSH2 0x9FF JUMP JUMPDEST PUSH1 0x1F NOT DUP5 AND PUSH2 0x9AD DUP7 PUSH2 0x789 JUMP JUMPDEST PUSH1 0x0 JUMPDEST DUP3 DUP2 LT ISZERO PUSH2 0x9D5 JUMPI DUP5 DUP10 ADD MLOAD DUP3 SSTORE PUSH1 0x1 DUP3 ADD SWAP2 POP PUSH1 0x20 DUP6 ADD SWAP5 POP PUSH1 0x20 DUP2 ADD SWAP1 POP PUSH2 0x9B0 JUMP JUMPDEST DUP7 DUP4 LT ISZERO PUSH2 0x9F2 JUMPI DUP5 DUP10 ADD MLOAD PUSH2 0x9EE PUSH1 0x1F DUP10 AND DUP3 PUSH2 0x8FB JUMP JUMPDEST DUP4 SSTORE POP JUMPDEST PUSH1 0x1 PUSH1 0x2 DUP9 MUL ADD DUP9 SSTORE POP POP POP JUMPDEST POP POP POP POP POP POP JUMP JUMPDEST PUSH1 0x0 DUP2 SWAP1 POP SWAP3 SWAP2 POP POP JUMP JUMPDEST PUSH1 0x0 PUSH2 0xA1D DUP3 PUSH2 0x3CC JUMP JUMPDEST PUSH2 0xA27 DUP2 DUP6 PUSH2 0xA07 JUMP JUMPDEST SWAP4 POP PUSH2 0xA37 DUP2 DUP6 PUSH1 0x20 DUP7 ADD PUSH2 0x3E8 JUMP JUMPDEST DUP1 DUP5 ADD SWAP2 POP POP SWAP3 SWAP2 POP POP JUMP JUMPDEST PUSH1 0x0 PUSH2 0xA4F DUP3 DUP5 PUSH2 0xA12 JUMP JUMPDEST SWAP2 POP DUP2 SWAP1 POP SWAP3 SWAP2 POP POP JUMP INVALID LOG2 PUSH5 0x6970667358 0x22 SLT KECCAK256 MSIZE SHR 0xE 0xB7 PUSH10 0x7895B3123EC69329F27E REVERT 0xB4 PUSH5 0x6F97A54E4F 0xA5 SMOD PUSH26 0xC297188349A064736F6C63430008120033000000000000000000 "
		},
		"gasEstimates": {
			"creation": {
				"codeDepositCost": "540800",
				"executionCost": "infinite",
				"totalCost": "infinite"
			},
			"external": {
				"addperson(string,uint256)": "infinite",
				"listofpeople(uint256)": "infinite",
				"nametofavnum(string)": "infinite",
				"pat()": "infinite",
				"retrieve()": "2460",
				"sayhello()": "infinite",
				"store(uint256)": "451"
			}
		},
		"methodIdentifiers": {
			"addperson(string,uint256)": "e1b3202a",
			"listofpeople(uint256)": "bf119bdb",
			"nametofavnum(string)": "c9de10ff",
			"pat()": "b4a24f50",
			"retrieve()": "2e64cec1",
			"sayhello()": "27a03cd7",
			"store(uint256)": "6057361d"
		}
	},
	"abi": [
		{
			"inputs": [
				{
					"internalType": "string",
					"name": "_name",
					"type": "string"
				},
				{
					"internalType": "uint256",
					"name": "_favnum",
					"type": "uint256"
				}
			],
			"name": "addperson",
			"outputs": [],
			"stateMutability": "nonpayable",
			"type": "function"
		},
		{
			"inputs": [
				{
					"internalType": "uint256",
					"name": "",
					"type": "uint256"
				}
			],
			"name": "listofpeople",
			"outputs": [
				{
					"internalType": "uint256",
					"name": "favnum",
					"type": "uint256"
				},
				{
					"internalType": "string",
					"name": "nmae",
					"type": "string"
				}
			],
			"stateMutability": "view",
			"type": "function"
		},
		{
			"inputs": [
				{
					"internalType": "string",
					"name": "",
					"type": "string"
				}
			],
			"name": "nametofavnum",
			"outputs": [
				{
					"internalType": "uint256",
					"name": "",
					"type": "uint256"
				}
			],
			"stateMutability": "view",
			"type": "function"
		},
		{
			"inputs": [],
			"name": "pat",
			"outputs": [
				{
					"internalType": "uint256",
					"name": "favnum",
					"type": "uint256"
				},
				{
					"internalType": "string",
					"name": "nmae",
					"type": "string"
				}
			],
			"stateMutability": "view",
			"type": "function"
		},
		{
			"inputs": [],
			"name": "retrieve",
			"outputs": [
				{
					"internalType": "uint256",
					"name": "",
					"type": "uint256"
				}
			],
			"stateMutability": "view",
			"type": "function"
		},
		{
			"inputs": [],
			"name": "sayhello",
			"outputs": [
				{
					"internalType": "string",
					"name": "",
					"type": "string"
				}
			],
			"stateMutability": "pure",
			"type": "function"
		},
		{
			"inputs": [
				{
					"internalType": "uint256",
					"name": "_newNumber",
					"type": "uint256"
				}
			],
			"name": "store",
			"outputs": [],
			"stateMutability": "nonpayable",
			"type": "function"
		}
	]
}